:100000000C9495000C94BD000C94BD000C94BD00A4
:100010000C94BD000C94BD000C94BD000C94BD006C
:100020000C94BD000C94BD000C94BD000C94BD005C
:100030000C94BD000C94BD000C94BD000C94BD004C
:100040000C945A0F0C94BD000C94DF0C0C94110D01
:100050000C94BD000C94BD000C94BD000C94BD002C
:100060000C9403170C94BD00084AD73B3BCE016E9D
:1000700084BCBFFDC12F3D6C74319ABD56833DDAFF
:100080003D00C77F11BED9E4BB4C3E916BAAAABE0E
:10009000000000803F004E414E494E495459494EA0
:1000A00046CDCCCC3D0AD7233C17B7D13877CC2BE3
:1000B000329595E6241FB14F0A000020410000C888
:1000C0004200401C4620BCBE4CCA1B0E5AAEC59D09
:1000D0007400000008000201000003040700000093
:1000E000000000000001020408102040800102040A
:1000F000081020010204081020040404040404046D
:1001000004020202020202030303030303000000CD
:1001100000250028002B0000000000240027002AF2
:100120000000AA01410D1716C60111241FBECFEF12
:10013000D8E0DEBFCDBF12E0A0E0B1E0E4E5F9E336
:1001400002C005900D92A633B107D9F724E0A6E3CB
:10015000B2E001C01D92A437B207E1F710E0C4E994
:10016000D0E004C02197FE010E947F18C139D10759
:10017000C9F70E946F0D0C949D1C0C94000008950B
:10018000DC01ED91FC910190F081E02D099461E09A
:10019000809134010E94C81061E0809132010E9478
:1001A000C81061E0809130010E94C81061E0809128
:1001B0002E010E94C81061E080912C010E94C8109D
:1001C00061E080912A010E94C81061E080912801BD
:1001D0000E94C81061E0809126010E94C81061E071
:1001E000809124010E94C81061E0809122010E9448
:1001F000C81061E0809120010E94C81061E08091E8
:100200001E010C94C810CF92DF92EF92FF920F93D1
:100210001F93CF93DF93EC018C01000F111F000F90
:10022000111FF801EA5CFE4FC080D180E280F380AC
:1002300020E030E0A901C701B6010E94DB0ACC0F23
:10024000DD1F18164CF461E0FE01E25FFE4F808175
:100250000E94041160E013C020E030E0A901C70152
:10026000B6010E94550987FF02C060E001C061E04D
:10027000FE01E25FFE4F80810E94041161E0FE01F9
:10028000EA5FFE4F80810E940411F801EA5CFE4F94
:10029000C080D180E280F38020E030E0A901C70176
:1002A000B6010E94DB0A18161CF4C701B60103C090
:1002B000C701B60190580E94CC09CA5EDE4F888102
:1002C000DF91CF911F910F91FF90EF90DF90CF9032
:1002D0000C944010CF93DF9368E871E089E392E0DB
:1002E0000E94891A0E947C1AC6E3D1E06883798350
:1002F0008A839B8368E871E080E090E00E94891A1D
:100300000E947C1A6C837D838E839F8368E871E0F2
:1003100080E090E00E94891A0E947C1A68877987A1
:100320008A879B8768E871E080E090E00E94891AE4
:100330000E947C1A6C877D878E879F87DF91CF9183
:10034000089580915902882321F00E946A01109239
:100350005902089549E350E360E070E080EF92E0D5
:100360000E941E1282EC92E00E942F138AE992E012
:100370000E942F1361E072E080E692E00E94A211D9
:100380006CEE71E08AE592E00C94A2118AE592E0AD
:100390000E94341180E692E00C943411CF93DF93E5
:1003A00060E470E08EEA93E00E94951560E170E0F1
:1003B0008EEA93E00E94C00066EB70E08EEA93E064
:1003C0000E94C0008EEA93E00E9414166AE070E07A
:1003D00080E090E00E94C90F60E470E08EEA93E054
:1003E0000E9495156DE070E08EEA93E00E94C000D7
:1003F00060E170E08EEA93E00E94C0008EEA93E034
:100400000E94141660E470E08EEA93E00E94951555
:1004100060E270E08EEA93E00E94C0008EEA93E012
:100420000E94141641E050E060E470E08EEA93E030
:100430000E9411168EEA93E00E94EE14EC0160E433
:1004400070E08EEA93E00E94951560E270E08EEA1B
:1004500093E00E94C000BE016F7077278EEA93E0A0
:100460000E94C0008EEA93E00E94141660E470E0DF
:100470008EEA93E00E94951565E370E08EEA93E0C2
:100480000E94C0008EEA93E00E94141641E050E002
:1004900060E470E08EEA93E00E9411168EEA93E029
:1004A0000E94EE14EC0160E470E08EEA93E00E949A
:1004B000951565E370E08EEA93E00E94C000BE01EE
:1004C000617F772764608EEA93E00E94C0008EEA25
:1004D00093E00E94141660E470E08EEA93E00E94BC
:1004E000951560E370E08EEA93E00E94C0008EEA0A
:1004F00093E0DF91CF910C941416CF93DF9360E4D7
:1005000070E08EEA93E00E94951562E070E08EEA5A
:1005100093E00E94C0008EEA93E00E94141646E029
:1005200050E060E470E08EEA93E00E9411168EEADB
:1005300093E00E94EE14EC018EEA93E00E94EE1428
:1005400060E070E0782F6C0F7D1F072E000C880B89
:10055000990B0E94040A609396027093970280930D
:100560009802909399028EEA93E00E94EE14EC01B7
:100570008EEA93E00E94EE1460E070E0782F6C0F3A
:100580007D1F072E000C880B990B0E94040A6093B4
:1005900092027093930280939402909395028EEA54
:1005A00093E00E94EE14EC018EEA93E00E94EE14B8
:1005B00060E070E0782F6C0F7D1F072E000C880B19
:1005C000990B0E94040A60938E0270938F028093AD
:1005D000900290939102DF91CF9108951F93CF9352
:1005E000DF931F92CDB7DEB7162FBC018EEA93E0E2
:1005F00049830E949515612F8EEA93E00E9442156F
:100600004981642F8EEA93E00E9442158EEA93E0BE
:100610000F90DF91CF911F910C94141640E06EE380
:1006200088E690E00E94EE0247E065E188E690E00F
:100630000E94EE024EE166E188E690E00E94EE0242
:1006400040E067E188E690E00C94EE0260E072E042
:100650008AE592E00E94B71126E040E052EC61E0AA
:1006600070E088E093E00E947A0C8EEA93E00E94AA
:1006700081150E94C7000E94CE010E940E0368EC03
:1006800070E080E692E00E9465110E94A40F6093E2
:10069000EA027093EB028093EC029093ED020895CE
:1006A000EF92FF920F931F93CF93DF9300D000D070
:1006B000CDB7DEB77C01162FBC018EEA93E02B8309
:1006C0003C8349835A830E949515612F8EEA93E0FB
:1006D0000E9442158EEA93E00E941416B7018EEA3A
:1006E00093E00E94951549815A81B7018EEA93E003
:1006F0000E9411162B81022F3C81132F8EEA93E06A
:100700000E94E614892B41F08EEA93E00E94EE14D9
:10071000F80181938F01F2CF8EEA93E00F900F9052
:100720000F900F90DF91CF911F910F91FF90EF905D
:100730000C9414160F931F93CF93DF93CDB7DEB7AE
:1007400028970FB6F894DEBF0FBECDBF8C019E0177
:100750002F5F3F4F48E050E06BE188E690E00E9459
:1007600050038B8190E0982F88272C81822B209139
:100770004C0130914D01820F931FF80191838083CA
:100780008D8190E0982F88272E81822B20914A011D
:1007900030914B01820F931F938382832F8130E02E
:1007A000322F22278885282B80914801909149017A
:1007B000280F391F35832483298130E0322F2227E7
:1007C0008A81282B3783268328960FB6F894DEBFBC
:1007D0000FBECDBFDF91CF911F910F910895CF93A1
:1007E000DF93CDB7DEB728970FB6F894DEBF0FBE04
:1007F000CDBFCE0101960E949A0369817A81072EAE
:10080000000C880B990B0E94040A20E030E046E6B9
:1008100051E40E945A0960938A0270938B0280937C
:100820008C0290938D026B817C81072E000C880BCB
:10083000990B0E94040A20E030E046E651E40E9451
:100840005A0960938602709387028093880290937E
:1008500089026D817E81072E000C880B990B0E9406
:10086000040A20E030E046E651E40E945A09609311
:1008700082027093830280938402909385026F8139
:10088000788560577C4C072E000C880B990B0E94D2
:10089000040A20E030E04CE853E40E945A0920E0CA
:1008A00030E04CE052E40E9477080E94CC0970933B
:1008B000EF026093EE0228960FB6F894DEBF0FBEEB
:1008C000CDBFDF91CF9108952F923F924F925F92CB
:1008D0006F927F928F929F92AF92BF92CF92DF9250
:1008E000EF92FF920F931F93CF93DF93CDB7DEB7B5
:1008F000E8970FB6F894DEBF0FBECDBF1C010E9473
:100900007D020E94EF030E94A40FC090EA02D090E3
:10091000EB02E090EC02F090ED026C197D098E097B
:100920009F090E94020A20E034E244E759E40E9451
:100930005A0969A77AA78BA79CA70E94A40F609366
:10094000EA027093EB028093EC029093ED02C09068
:100950008E02D0908F02E0909002F09091028090F1
:10096000920290909302A0909402B0909502A701F9
:100970009601C501B4010E94F60821EE3EE245E66B
:1009800052E40E94E80A2B013C01A5019401C50133
:10099000B4010E94E80A4B015C01A7019601C7015E
:1009A000B6010E94E80A9B01AC01C501B4010E9496
:1009B00077080E945B0B9B01AC018091960290919D
:1009C0009702A0919802B0919902BC01CD01905874
:1009D0000E945A090E94260921EE3EE245E652E4B1
:1009E0000E94E80A69AB7AAB8BAB9CAB20E030E0AD
:1009F00043E053E460918A0270918B0280918C02F3
:100A000090918D020E945A096DA37EA38FA398A78F
:100A100020E030E043E053E4609186027091870269
:100A200080918802909189020E945A094B015C01D1
:100A300020E030E044EB52ECC301B2010E945509C2
:100A400087FF10C020E030E044EB52E460916E027A
:100A500070916F0280917002909171020E94DB0A86
:100A60001816D4F020E030E044EB52E4C301B201A8
:100A70000E94DB0A18167CF520E030E044EB52ECD3
:100A800060916E0270916F0280917002909171027C
:100A90000E94550987FF1FC0B301A20182EC92E0BA
:100AA0000E94E0144092760250927702609278029F
:100AB0007092790240926E0250926F0260927002C0
:100AC0007092710240927E0250927F026092800288
:100AD0007092810216C0C9A4DAA4EBA4FCA40DA1F3
:100AE0001EA12FA138A5B301A20182EC92E00E94C1
:100AF000611360936E0270936F0280937002909303
:100B00007102C0906E02D0906F02E0907002F0907F
:100B1000710220E030E0A901C701B6010E94DB0AA2
:100B200018165CF420E030E044EB52E4C701B60153
:100B30000E94DB0A18165CF00EC020E030E044EBA7
:100B400052ECC701B6010E94550987FF04C0B7FAED
:100B5000B094B7F8B094C9A4DAA4EBA4FCA49501AE
:100B6000840149A95AA96BA97CA98AE992E00E944B
:100B700061136DAB7EAB8FAB98AF60936A027093DD
:100B80006B0280936C0290936D0229A53AA54BA548
:100B90005CA56DA17EA18FA198A50E94E80A6DA712
:100BA0007EA78FA798AB20917E0230917F02409163
:100BB0008002509181020E9477086DA37EA38FA3CB
:100BC00098A760937E0270937F0280938002909337
:100BD000810229A53AA54BA55CA5C501B4010E94D7
:100BE000E80A6B017C0120917A0230917B024091EE
:100BF0007C0250917D020E9477084B015C0160935A
:100C00007A0270937B0280937C0290937D02209104
:100C100076023091770240917802509179026DA569
:100C20007EA58FA598A90E9477082BE734E14EE6B0
:100C30005FE30E94E80A6DA77EA78FA798AB29E221
:100C40003CE54FE85DE3C301B2010E94E80A9B0165
:100C5000AC016DA57EA58FA598A90E947708609329
:100C600076027093770280937802909379022091B4
:100C70007202309173024091740250917502C70163
:100C8000B6010E9477082BE734E14EE65FE30E944D
:100C9000E80A6B017C0129E23CE54FE85DE369A9C4
:100CA0007AA98BA99CA90E94E80A9B01AC01C70103
:100CB000B6010E947708609372027093730280936A
:100CC00074029093750220E030E044E353EC6DA190
:100CD0007EA18FA198A50E94550987FD0CC020E038
:100CE00030E044E353E46DA17EA18FA198A50E945A
:100CF000DB0A181684F480916E0290916F02A09125
:100D00007002B091710280937E0290937F02A09353
:100D10008002B093810220E030E044E353ECC5014F
:100D2000B4010E94550987FD0AC020E030E044E389
:100D300053E4C501B4010E94DB0A181664F48DA9BE
:100D40009EA9AFA9B8AD80937A0290937B02A0933D
:100D50007C02B0937D02BE016F5F7F4F80EF92E017
:100D60000E94B0122D893E894F89588D698D7A8DE8
:100D70008B8D9C8D0E94F6082EEA37E441E65EE3F7
:100D80000E9477086B017C0120E030E0A9010E94FD
:100D9000550987FF0AC02BED3FE049EC50E4C7013D
:100DA000B6010E9477086B017C012BED3FE049EC16
:100DB00050E4C701B6010E94DB0A181654F42BED6B
:100DC0003FE049EC50E4C701B6010E9476086B0190
:100DD0007C0120E030E044E353E4C701B6010E9407
:100DE000E80A2BED3FE049E450E40E945A09609381
:100DF00066027093670280936802909369022328C9
:100E000009F4E6C020E030E040E858E36091960243
:100E10007091970280919802909199020E94E80A3D
:100E20002AE038EE4CE151E40E94E80AAB01BC0133
:100E300022E030E088E093E00E94580F68E871E01B
:100E400088E093E00E94CC0D20E030E040E858E3D9
:100E50006091920270919302809194029091950218
:100E60000E94E80A2AE038EE4CE151E40E94E80AC8
:100E7000AB01BC0122E030E088E093E00E94580F13
:100E800068E871E088E093E00E94CC0D20E030E05B
:100E900040E858E360918E0270918F028091900239
:100EA000909191020E94E80A2AE038EE4CE151E468
:100EB0000E94E80AAB01BC0122E030E088E093E048
:100EC0000E94580F68E871E088E093E00E94CC0D22
:100ED00040918A0250918B0260918C0270918D0238
:100EE00022E030E088E093E00E94580F68E871E06B
:100EF00088E093E00E94CC0D4091860250918702D9
:100F0000609188027091890222E030E088E093E0ED
:100F10000E94580F68E871E088E093E00E94CC0DD1
:100F20004091820250918302609184027091850207
:100F300022E030E088E093E00E94580F68E871E01A
:100F400088E093E00E94CC0D4D895E896F89788D91
:100F500022E030E088E093E00E94580F68E871E0FA
:100F600088E093E00E94CC0D498D5A8D6B8D7C8D6D
:100F700022E030E088E093E00E94580F68E871E0DA
:100F800088E093E00E94CC0D409166025091670288
:100F9000609168027091690222E030E088E093E09D
:100FA0000E94580F68E871E088E093E00E94CC0D41
:100FB00022E030E049A55AA56BA57CA588E093E026
:100FC0000E94580F6AE572E088E093E00E94BE0D2F
:100FD0006091460170914701072E000C880B990B18
:100FE0000E94C90FE8960FB6F894DEBF0FBECDBFC2
:100FF000DF91CF911F910F91FF90EF90DF90CF90F5
:10100000BF90AF909F908F907F906F905F904F9028
:101010003F902F9008950F931F93CF93DF938C01F0
:10102000C0E0D0E06091460170914701C8010E9484
:101030003518C617D70734F481E090E00E946404A5
:101040002196F0CFDF91CF911F910F910895CF930B
:10105000DF93C1E0DFE188E093E00E94B40B181653
:1010600019061CF58091590281111FC088E093E098
:101070000E94CE0BE09138028D3071F0AE2FB0E0BF
:10108000A75CBD4F8C93EF5FE03218F4E093380219
:10109000E2CFD0933802DFCFF0E0E75CFD4F108263
:1010A00010923802C0935902D6CFDF91CF910895A4
:1010B00084E690E00E940B0884E690E0909347015C
:1010C000809346010E9427080E94A10180E090E0E1
:1010D0000E94030181E090E00E94030182E090E021
:1010E0000E94030183E090E00C9403015058BB2759
:1010F000AA270E948E080C94A10A0E94930A38F035
:101100000E949A0A20F039F49F3F19F426F40C94B7
:10111000690A0EF4E095E7FB0C94630AE92F0E943C
:10112000B20A58F3BA17620773078407950720F0CD
:1011300079F4A6F50C94D40A0EF4E0950B2EBA2F90
:10114000A02D0B01B90190010C01CA01A0011124CD
:10115000FF27591B99F0593F50F4503E68F11A1679
:10116000F040A22F232F342F4427585FF3CF46950A
:1011700037952795A795F0405395C9F77EF41F162C
:10118000BA0B620B730B840BBAF09150A1F0FF0FF6
:10119000BB1F661F771F881FC2F70EC0BA0F621FE2
:1011A000731F841F48F4879577956795B795F795D2
:1011B0009E3F08F0B0CF9395880F08F09927EE0F67
:1011C0009795879508950E94930A60F080E891E0D2
:1011D00009F49EEF0E949A0A28F040E851E071F469
:1011E0005EEF0CC00C94690A0C94D40AE92FE078E5
:1011F0000E94B20A40F3092E052AB1F326173707D9
:101200004807590738F00E2E07F8E02569F0E02569
:10121000E0640AC0EF6307F8009407FADB01B90144
:101220009D01DC01CA01AD01EF930E9471090E948A
:10123000A10A0E9426095F91552339F02BED3FE06A
:1012400049E450FD49EC0C9477080895DF93DD27BD
:10125000B92FBF7740E85FE31616170648075B070C
:1012600018F4D92F0E94E00A9F938F937F936F9376
:101270000E949B0BE8E6F0E00E946C0A0E94A10A23
:101280002F913F914F915F910E94FB0ADD2351F016
:101290009058A2EA2AED3FE049EC5FE3D0785D2761
:1012A0000E948E08DF910C94A10A0E943F0A08F464
:1012B00081E008950E946E090C94A10A0E949A0A86
:1012C00058F00E94930A40F029F45F3F29F00C94F3
:1012D000630A51110C94D50A0C94690A0E94B20A4F
:1012E00068F39923B1F3552391F3951B550BBB2755
:1012F000AA2762177307840738F09F5F5F4F220F9A
:10130000331F441FAA1FA9F335D00E2E3AF0E0E890
:1013100032D091505040E695001CCAF72BD0FE2FDA
:1013200029D0660F771F881FBB1F2617370748076E
:10133000AB07B0E809F0BB0B802DBF01FF27935826
:101340005F4F3AF09E3F510578F00C94630A0C947D
:10135000D50A5F3FE4F3983ED4F386957795679579
:10136000B795F7959F5FC9F7880F911D969587955B
:1013700097F90895E1E0660F771F881FBB1F62177A
:1013800073078407BA0720F0621B730B840BBA0B38
:10139000EE1F88F7E09508950E94D3096894B11173
:1013A0000C94D50A08950E94BA0A88F09F5798F0C5
:1013B000B92F9927B751B0F0E1F0660F771F881F5A
:1013C000991F1AF0BA95C9F714C0B13091F00E9474
:1013D000D40AB1E008950C94D40A672F782F882797
:1013E000B85F39F0B93FCCF3869577956795B3959B
:1013F000D9F73EF490958095709561957F4F8F4F0A
:101400009F4F0895E89409C097FB3EF4909580950E
:10141000709561957F4F8F4F9F4F9923A9F0F92FBA
:1014200096E9BB279395F695879577956795B79538
:10143000F111F8CFFAF4BB0F11F460FF1BC06F5F1E
:101440007F4F8F4F9F4F16C0882311F096E911C030
:10145000772321F09EE8872F762F05C0662371F051
:1014600096E8862F70E060E02AF09A95660F771F65
:10147000881FDAF7880F9695879597F90895990F41
:101480000008550FAA0BE0E8FEEF16161706E8074E
:10149000F907C0F012161306E407F50798F0621B6F
:1014A000730B840B950B39F40A2661F0232B242B44
:1014B000252B21F408950A2609F4A140A6958FEF63
:1014C000811D811D089597F99F6780E870E060E0B5
:1014D00008959FEF80EC0895DF93CF931F930F93B0
:1014E000FF92EF92DF927B018C01689406C0DA2EA6
:1014F000EF010E94FB0AFE01E894A5912591359128
:1015000045915591A6F3EF010E948E08FE019701C7
:10151000A801DA9469F7DF90EF90FF900F911F9187
:10152000CF91DF91089500240A9416161706180625
:101530000906089500240A941216130614060506D7
:101540000895092E0394000C11F4882352F0BB0F68
:1015500040F4BF2B11F460FF04C06F5F7F4F8F4FCB
:101560009F4F089557FD9058440F551F59F05F3F06
:1015700071F04795880F97FB991F61F09F3F79F0B5
:1015800087950895121613061406551FF2CF469537
:10159000F1DF08C0161617061806991FF1CF8695B9
:1015A0007105610508940895E894BB27662777279D
:1015B000CB0197F908950E943F0A08F48FEF089530
:1015C0009B01AC0160E070E080E89FE30C945A0955
:1015D0000E94FB0A0C94A10A0E94930A38F00E9410
:1015E0009A0A20F0952311F00C94630A0C94690A6E
:1015F00011240C94D50A0E94B20A70F3959FC1F38E
:10160000950F50E0551F629FF001729FBB27F00DB0
:10161000B11D639FAA27F00DB11DAA1F649F662705
:10162000B00DA11D661F829F2227B00DA11D621F54
:10163000739FB00DA11D621F839FA00D611D221F0E
:10164000749F3327A00D611D231F849F600D211DF2
:10165000822F762F6A2F11249F5750409AF0F1F075
:1016600088234AF0EE0FFF1FBB1F661F771F881FDE
:1016700091505040A9F79E3F510580F00C94630AA9
:101680000C94D50A5F3FE4F3983ED4F386957795A2
:101690006795B795F795E7959F5FC1F7FE2B880F84
:1016A000911D9695879597F9089519F416F40C9461
:1016B000690A0C949F0B0E94BA0AB8F39923C9F3E4
:1016C000B6F39F57550B87FF0E94AD0B0024A0E691
:1016D00040EA900180585695979528F4805C660FF3
:1016E000771F881F20F026173707480730F4621B42
:1016F000730B840B202931294A2BA6951794079444
:10170000202531254A2758F7660F771F881F20F0BC
:1017100026173707480730F4620B730B840B200D34
:10172000311D411DA09581F7B901842F9158880F73
:101730009695879508959B01AC010C94E80A9F3F0C
:1017400031F0915020F4879577956795B795880F7C
:10175000911D9695879597F9089591505040660F81
:10176000771F881FD2F70895FC01918D228D892F54
:1017700090E0805C9F4F821B91098F739927089599
:10178000FC01918D828D981731F0828DE80FF11D4B
:10179000858D90E008958FEF9FEF0895FC01918D66
:1017A000828D981761F0828DDF01A80FB11D5D96C3
:1017B0008C91928D9F5F9F73928F90E008958FEF31
:1017C0009FEF089587E39DE0892B49F080E090E04A
:1017D000892B29F00E94370D81110C940000089587
:1017E000FC01848DDF01A80FB11DA35ABF4F2C91BE
:1017F000848D90E001968F739927848FA689B7898D
:101800002C93A089B1898C9180648C93938D848D65
:10181000981306C00288F389E02D80818F7D808334
:101820000895CF93DF93EC01888D8823C9F0EA896E
:10183000FB89808185FD05C0A889B9898C9186FDC9
:101840000FC00FB607FCF5CF808185FFF2CFA889C6
:10185000B9898C9185FFEDCFCE010E94F00BE7CFC7
:10186000DF91CF910895EF92FF920F931F93CF9343
:10187000DF93EC0181E0888F9B8D8C8D981305C0E0
:10188000E889F989808185FD24C0F62E0B8D10E052
:101890000F5F1F4F0F731127E02E8C8DE8120CC0C5
:1018A0000FB607FCFACFE889F989808185FFF5CF6B
:1018B000CE010E94F00BF1CF8B8DFE01E80FF11DE0
:1018C000E35AFF4FF0820B8FEA89FB8980818062A7
:1018D00007C0EE89FF896083E889F9898081806487
:1018E000808381E090E0DF91CF911F910F91FF9075
:1018F000EF900895CF92DF92EF92FF921F93CF93D4
:10190000DF93EC016A017B01122FE889F98982E0FB
:1019100080834115514E61057105B1F060E079E0B9
:101920008DE390E0A70196010E944918DA01C901F0
:101930000197A109B109B695A79597958795AC012F
:10194000411580E15807A8F0E889F989108260E81C
:1019500074E88EE190E0A70196010E944918BA014F
:10196000A90141505109610971097695679557950B
:101970004795EC85FD855083EE85FF854083188E65
:10198000EC89FD891083EA89FB89808180618083ED
:10199000EA89FB89808188608083EA89FB8980816C
:1019A00080688083EA89FB8980818F7D8083DF91D5
:1019B000CF911F91FF90EF90DF90CF9008951F92ED
:1019C0000F920FB60F9211242F938F939F93EF9343
:1019D000FF93E0911803F09119038081E0911E03B9
:1019E000F0911F0382FD12C09081809121038F5FCF
:1019F0008F7320912203821751F0E0912103F0E0D0
:101A0000E85FFC4F958F8093210301C08081FF9197
:101A1000EF919F918F912F910F900FBE0F901F907C
:101A200018951F920F920FB60F9211242F933F9388
:101A30004F935F936F937F938F939F93AF93BF93D6
:101A4000EF93FF9388E093E00E94F00BFF91EF91FA
:101A5000BF91AF919F918F917F916F915F914F91C6
:101A60003F912F910F900FBE0F901F90189588E017
:101A700093E00E94B40B21E0892B09F420E0822F2F
:101A80000895E8E0F3E01382128288EE93E0A0E08C
:101A9000B0E084839583A683B78383EF91E091833D
:101AA000808385EC90E09587848784EC90E097872D
:101AB000868780EC90E0918B808B81EC90E0938B1B
:101AC000828B82EC90E0958B848B86EC90E0978BF8
:101AD000868B118E128E138E148E089508950E9497
:101AE00005100E946E0D0E942603C2EEDBE00E94EC
:101AF00058082097E1F30E94E20BF9CFCF92DF92D2
:101B0000EF92FF920F931F93CF93DF936C017A01B3
:101B10008B01C0E0D0E0CE15DF0589F0D8016D91D2
:101B20008D01D601ED91FC910190F081E02DC6016F
:101B30000995892B11F47E0102C02196ECCFC701D3
:101B4000DF91CF911F910F91FF90EF90DF90CF9099
:101B500008956115710579F0FB0101900020E9F706
:101B60003197AF01461B570BDC01ED91FC910280D0
:101B7000F381E02D099480E090E00895DC01ED917F
:101B8000FC91DB0114964D915C9115976D917C91C0
:101B90000280F381E02D09940C94A90DDC01ED91F4
:101BA000FC910190F081E02D09948F929F92AF9269
:101BB000BF92CF92DF92EF92FF920F931F93CF933A
:101BC000DF93CDB7DEB7A1970FB6F894DEBF0FBE97
:101BD000CDBF7C01D42EC52EDB0119A2223008F422
:101BE0002AE08E010F5D1F4F822E912CA12CB12C6B
:101BF0006D2D7C2DCD01A50194010E944918D22E96
:101C0000C32EDA01015011096A3071058105910571
:101C100010F4605D01C0695CF8016083232B242B04
:101C2000252B31F7B801C7010E94A90DA1960FB667
:101C3000F894DEBF0FBECDBFDF91CF911F910F9102
:101C4000FF90EF90DF90CF90BF90AF909F908F90DC
:101C50000895CF92DF92EF92FF920F931F93CF934D
:101C6000DF93EC016A017B012115310579F4E881EC
:101C7000F9810190F081E02D642FDF91CF911F91C8
:101C80000F91FF90EF90DF90CF9009942A303105AB
:101C9000E9F477FF1AC06DE20E94CE0D8C01442753
:101CA0005527BA014C195D096E097F092AE0CE015A
:101CB0000E94D50D800F911FDF91CF911F910F9141
:101CC000FF90EF90DF90CF9008952AE0B701A60132
:101CD000CE01DF91CF911F910F91FF90EF90DF9098
:101CE000CF900C94D50D4F925F926F927F928F920E
:101CF0009F92AF92BF92CF92DF92EF92FF92CF93DB
:101D0000DF93EC016A017B01B22E9A01AB01C7019E
:101D1000B6010E943018882319F062E072E027C0F3
:101D200026013701E89477F82FEF3FEF4FE75FE7A1
:101D3000C301B2010E94301881110DC02FEF3FEF97
:101D40004FE75FE7C301B2010E94550918161CF462
:101D500066E072E00CC02FEF3FEF4FE75FE4C70192
:101D6000B6010E94DB0A18169CF46AE072E0CE010C
:101D7000DF91CF91FF90EF90DF90CF90BF90AF9029
:101D80009F908F907F906F905F904F900C94A90DD3
:101D90002FEF3FEF4FE75FECC701B6010E945509F7
:101DA00087FDE3CF20E030E0A901C701B6010E9422
:101DB000550987FF0AC06DE2CE010E94CE0D4C018D
:101DC000F7FAF094F7F8F09402C0812C912CA12C32
:101DD00060E070E080E09FE3AB1441F020E030E091
:101DE00040E251E40E945A09A394F6CF9B01AC0152
:101DF000C701B6010E9477082B013C010E94D3095C
:101E00006B017C010E94020A9B01AC01C301B2017B
:101E10000E9476082B013C012AE0B701A601CE0101
:101E20000E94D50D7C01E80CF91CBB2039F06EE056
:101E300072E0CE010E94A90DE80EF91EDB2CDD2018
:101E400039F120E030E040E251E4C301B2010E94E8
:101E5000E80A2B013C010E94CC094B01770FAA082C
:101E6000BB082AE030E0B501A401CE010E94290E92
:101E7000E80EF91EC501B4010E94040A9B01AC01E1
:101E8000C301B2010E9476082B013C01DA94D7CF3E
:101E9000C701DF91CF91FF90EF90DF90CF90BF907F
:101EA000AF909F908F907F906F905F904F9008952C
:101EB0000C94730E1F920F920FB60F9211242F9352
:101EC0003F938F939F93AF93BF938091A60390917D
:101ED000A703A091A803B091A9033091A50323E023
:101EE000230F2D3720F40196A11DB11D05C026E852
:101EF000230F0296A11DB11D2093A5038093A60375
:101F00009093A703A093A803B093A9038091AA0379
:101F10009091AB03A091AC03B091AD030196A11DCC
:101F2000B11D8093AA039093AB03A093AC03B0932D
:101F3000AD03BF91AF919F918F913F912F910F90E2
:101F40000FBE0F901F9018953FB7F8948091AA0389
:101F50009091AB03A091AC03B091AD0326B5A89BC3
:101F600005C02F3F19F00196A11DB11D3FBFBA2F2B
:101F7000A92F982F8827820F911DA11DB11DBC018B
:101F8000CD0142E0660F771F881F991F4A95D1F750
:101F900008958F929F92AF92BF92CF92DF92EF926D
:101FA000FF926B017C010E94A40F4B015C01C114E4
:101FB000D104E104F10401F10E941B160E94A40F58
:101FC000DC01CB0188199909AA09BB09883E934015
:101FD000A105B10560F321E0C21AD108E108F108BA
:101FE00088EE880E83E0981EA11CB11CC114D10498
:101FF000E104F10419F7DBCFFF90EF90DF90CF9071
:10200000BF90AF909F908F900895789484B5826030
:1020100084BD84B5816084BD85B5826085BD85B58C
:10202000816085BDEEE6F0E0808181608083E1E83B
:10203000F0E0108280818260808380818160808373
:10204000E0E8F0E0808181608083E1EBF0E0808176
:1020500084608083E0EBF0E0808181608083EAE748
:10206000F0E08081846080838081826080838081D1
:10207000816080838081806880831092C100089590
:102080001F93CF93DF93182FEB0161E00E94C810DC
:10209000209711F460E004C0CF3FD10539F461E02E
:1020A000812FDF91CF911F910C940411E12FF0E06B
:1020B000EF52FF4FE491E330F9F048F4E130B9F02A
:1020C000E230A1F584B5806284BDC8BD34C0E7307C
:1020D000E9F0E83019F1E43049F580918000806240
:1020E00080938000D0938B00C0938A0024C084B575
:1020F000806884BDC7BD1FC08091800080688093C8
:102100008000D0938900C093880015C08091B000F2
:1021100080688093B000C093B3000DC08091B00080
:1021200080628093B000C093B40005C0C038D10570
:102130000CF0B5CFAFCFDF91CF911F9108958330D1
:1021400081F028F4813099F08230A1F00895873031
:10215000A9F08830B9F08430D1F4809180008F7D6F
:1021600003C0809180008F7780938000089584B5AC
:102170008F7702C084B58F7D84BD08958091B000B3
:102180008F7703C08091B0008F7D8093B000089559
:10219000CF93DF9390E0FC01EB51FF4F2491FC01C2
:1021A000E750FF4F8491882361F190E0880F991FD9
:1021B000FC01E95EFE4FC591D491FC01E35FFE4F47
:1021C000A591B491611109C09FB7F89488812095B9
:1021D00082238883EC912E230BC0623061F49FB779
:1021E000F8943881822F809583238883EC912E2B5D
:1021F0002C939FBF06C08FB7F894E8812E2B2883BD
:102200008FBFDF91CF9108951F93CF93DF93282F36
:1022100030E0F901EF52FF4F8491F901EB51FF4F8C
:10222000D491F901E750FF4FC491CC23C9F0162F88
:1022300081110E949F10EC2FF0E0EE0FFF1FE35F73
:10224000FE4FA591B4918FB7F894111105C09C91E0
:10225000ED2FE095E92302C0EC91ED2BEC938FBFBD
:10226000DF91CF911F910895FC01808191810C94A1
:102270001A19CF93DF93EC0188819981009711F0AF
:102280000E941A19198218821D821C821B821A82CE
:10229000DF91CF9108950F931F93CF93DF93EC01BC
:1022A0008B016F5F7F4F888199810E94B2190097DF
:1022B00031F0998388831B830A8381E001C080E029
:1022C000DF91CF911F910F910895CF93DF93EC0190
:1022D00088819981892B29F08A819B8186179707AC
:1022E00060F4CE010E944B11882341F08C819D81C6
:1022F000892B19F4E881F981108281E0DF91CF9177
:102300000895EF92FF920F931F93CF93DF93EC0109
:102310007B018A01BA010E946511811104C0CE01BE
:102320000E94391107C01D830C83B70188819981F0
:102330000E94971ACE01DF91CF911F910F91FF90CC
:10234000EF900895FC01118210821382128215828F
:1023500014826115710551F0FB0101900020E9F72D
:102360003197AF01461B570B0C9481110895CF9301
:10237000DF93EC016115710559F0FB01019000201C
:10238000E9F73197AF01461B570B0E94811102C03C
:102390000E943911CE01DF91CF91089508950F93D6
:1023A0001F93CF93DF938C01EB0188E2FB01119225
:1023B0008A95E9F74BE050E060E172E0CE010E94BF
:1023C0009E1A1B8681E090E0A0E0B0E08C879D879C
:1023D000AE87BF87F80184899589A689B789888BDC
:1023E000998BAA8BBB8B82E090E0A0E0B0E08C8B55
:1023F0009D8BAE8BBF8B1CA21DA21EA21FA280E0D4
:1024000090E0A8E4B4E4888F998FAA8FBB8F80E016
:1024100090E0A8E4B4EC8C8F9D8FAE8FBF8F8DECD5
:102420009CECACE4BEE388A399A3AAA3BBA3DF9171
:10243000CF911F910F9108950C941C162CE132E05E
:10244000FC0131832083448B558B668B778B0895F9
:102450006F927F928F929F92AF92BF92CF92DF92B4
:10246000EF92FF920F931F93CF93DF938C016EE156
:102470008EEA93E00E948B1563E08EEA93E00E945F
:1024800042158EEA93E00E94141646E06EE18EEA51
:1024900093E00E940E168EEA93E00E94E6140697DF
:1024A000D4F38EEA93E00E94EE14682E8EEA93E055
:1024B0000E94EE14782E8EEA93E00E94EE14A82E6D
:1024C0008EEA93E00E94EE14B82E8EEA93E00E940A
:1024D000EE14882E8EEA93E00E94EE14982ED62CED
:1024E000C12CB6016729072E000C880B990B0E949E
:1024F000040AF8016483758386839783F82CE12CA2
:10250000B7016929072E000C880B990B0E94040A59
:10251000F8016087718782879387DA2DF0E0CF2FEB
:10252000BE016B29072E000C880B990B0E94040A30
:10253000F8016487758786879787108A118A128ABF
:10254000138ADF91CF911F910F91FF90EF90DF9051
:10255000CF90BF90AF909F908F907F906F90089595
:10256000CF92DF92EF92FF920F931F93CF93DF935F
:102570008C01EB0184E2FB0111928A95E9F7C80115
:102580000E94281284E290E0A0E0B0E08883998362
:10259000AA83BB83F80184899589A689B7898C832E
:1025A0009D83AE83BF8382E090E0A0E0B0E08887A7
:1025B0009987AA87BB87188A198A1A8A1B8AC090AA
:1025C0005201D0905301E0905401F0905501A701C1
:1025D000960164817581868197810E945A0920E065
:1025E00030E048EC52E40E94E80A6C8B7D8B8E8BC5
:1025F0009F8BA7019601F80160857185828593857F
:102600000E945A0920E030E048EC52E40E94E80AB7
:10261000688F798F8A8F9B8F20914E0130914F0167
:102620004091500150915101F8016485758586856E
:1026300097850E945A0920E030E048EC52E40E945D
:10264000E80A6C8F7D8F8E8F9F8F81E0DF91CF9115
:102650001F910F91FF90EF90DF90CF900895FC01B4
:102660008FE692E1A3E8BAE380839183A283B383E8
:1026700086EA9BE9A4E4BBE384839583A683B783BE
:102680008FE892ECA5EFBCE380879187A287B387A0
:102690001486158616861786108A118A128A138A5E
:1026A000108E118E128E138E148E158E168E178E1E
:1026B00010A211A212A213A214A215A216A217A26E
:1026C00008952F923F924F925F926F927F928F92D6
:1026D0009F92AF92BF92CF92DF92EF92FF920F93B1
:1026E0001F93CF93DF93CDB7DEB76C970FB6F894F7
:1026F000DEBF0FBECDBF1C014D8B5E8B6F8B788F05
:10270000C901B801D10150962D913D914D915C9137
:102710005397298B3A8B4B8B5C8B0E9476089B01DD
:10272000AC01F101648B758B868B978BC701B60169
:102730000E94E80AD1011C962D913D914D915C912A
:102740001F970E9477086D877E878F87988BD101AE
:1027500094962D913D914D915C9197972D833E8359
:102760004F835887C701B6010E94E80A4B015C01FC
:10277000F101448C558C668C778C20A131A142A14B
:1027800053A129873A874B875C87A30192010E9456
:10279000760829853A854B855C850E947608F1018B
:1027A00020813181428153810E9477089B01AC01D5
:1027B000C701B6010E94E80AD10158962D913D91BA
:1027C0004D915C915B970E94770869837A838B8334
:1027D0009C83A5019401C301B2010E9476082B01DC
:1027E0003C01A501940169857A858B859C850E94B1
:1027F000760869877A878B879C87F10124813581E8
:1028000046815781C701B6010E94E80A9B01AC01CD
:102810006D817E818F8198850E947708698F7A8F7C
:102820008B8F9C8FD10118962D913D914D915C918C
:102830001B9769817A818B819C810E9477086B014B
:102840007C019B01AC0169817A818B819C810E9412
:102850005A094B015C01A701960169857A858B8530
:102860009C850E945A096B017C012D853E854F8510
:1028700058896D897E898F89988D0E9476086D832D
:102880007E838F8398879B01AC01C501B4010E94B0
:10289000E80A9B01AC016D857E858F8598890E9431
:1028A00077086D877E878F87988BF101648775879E
:1028B000868797872D813E814F815885C701B60154
:1028C0000E94E80A9B01AC0169897A898B899C89FD
:1028D0000E947708D10150966D937D938D939C93C0
:1028E000539729813A814B815C81C501B4010E94D3
:1028F000E80A9B01AC0169817A818B819C810E94ED
:102900007608F101608F718F828F938FA3019201FE
:10291000C501B4010E94E80A9B01AC01C301B201E8
:102920000E947608D1015C966D937D938D939C9364
:102930005F9729813A814B815C81C701B6010E9472
:10294000E80A9B01AC0169857A858B859C850E948C
:102950007608F10160A371A382A393A3A30192015E
:10296000C701B6010E94E80A9B01AC01698D7A8D0E
:102970008B8D9C8D0E947608D10194966D937D93EA
:102980008D939C9397976D857E858F8598896C969E
:102990000FB6F894DEBF0FBECDBFDF91CF911F9170
:1029A0000F91FF90EF90DF90CF90BF90AF909F90EE
:1029B0008F907F906F905F904F903F902F900895F1
:1029C000FC01448755876687778708958091DE03E9
:1029D00090E02091DF03821B910908959091DF031D
:1029E0008091DE03981750F4E92FF0E0E052FC4F9D
:1029F000208130E09F5F9093DF0302C02FEF3FEF15
:102A0000C9010895E091DF038091DE03E81730F4F7
:102A1000F0E0E052FC4F808190E008958FEF9FEF4F
:102A200008950895CF92DF92EF92FF920F931F9334
:102A3000CF93DF937C01262F972F8A018091BA03D1
:102A4000882391F0C62FD72F6E01C40ED51ECC154A
:102A5000DD0571F06991D701ED91FC910190F08154
:102A6000E02DC7010995F3CF642F822F0E94DA165B
:102A7000C801DF91CF911F910F91FF90EF90DF90F0
:102A8000CF900895CF93DF931F92CDB7DEB76983C0
:102A90002091BA032223D1F02091BB03203240F0D1
:102AA00021E030E0FC013383228380E090E015C018
:102AB0008091BC03E82FF0E0E354FC4F99819083B0
:102AC0008F5F8093BC038093BB0305C061E0CE01A0
:102AD00001960E94DA1681E090E00F90DF91CF918D
:102AE0000895FC011382128288EE93E0A0E0B0E02A
:102AF00084839583A683B7838AE292E0918380835F
:102B000008951092DF031092DE031092BC0310921E
:102B1000BB030C941E1681E08093BA036093DD031F
:102B20001092BC031092BB0308950C948B150F9365
:102B3000062F21E04091BB036DEB73E08091DD0334
:102B40000E9484161092BC031092BB031092BA0329
:102B50000F9108954F925F926F927F92AF92BF92C2
:102B6000CF92EF92FF920F931F93CF93DF935C016D
:102B7000F62ED42F28013901EE2021F10E948B1569
:102B8000CE2DC43008F0C3E0C150C0F0D501ED91A6
:102B9000FC91B8E0CB9FC0011124A301920104C0B5
:102BA00056954795379527958A95D2F7CA01B90169
:102BB0000190F081E02DC5010995E6CF60E0C501E7
:102BC0000E9497154D2FD13208F040E22C2D60EE77
:102BD00073E08F2D0E943C161092DF038093DE037A
:102BE000DF91CF911F910F91FF90EF90CF90BF9009
:102BF000AF907F906F905F904F900895CF92EF923B
:102C00000F931F93C22EE12C00E010E098010E9468
:102C1000AA151F910F91EF90CF90089521E00C9489
:102C2000FE1521E00C94FE1561E00C9497158EEAD8
:102C300093E00C94711508950C941A1910926D0478
:102C400081E080936B0410926A0461E082E10E944B
:102C5000041161E083E10E940411E9EBF0E080815E
:102C60008E7F808380818D7F808388E48093B8000D
:102C700085E48093BC000895413208F043C09091F0
:102C80006D049111FCCF91E090936D0420936B043F
:102C90002FEF2093000410924504240F2093440446
:102CA00090936C0490916C04880F892B80936C0432
:102CB00080916A04813061F410926A0480916C04FE
:102CC0008093BB008091BC0083FDF8CF85EC01C0F0
:102CD00085EE8093BC0080916D048130E1F380919A
:102CE0004504841710F44091450426E434E0FB01C8
:102CF000D9018A2F821B841718F48D918193F9CF03
:102D0000842F089580E008950F93413208F04AC05F
:102D100090916D049111FCCF32E030936D040093DB
:102D20006B043FEF30930004109245044093440439
:102D3000FB0166E474E0DB013A2F361B341718F40C
:102D400031913D93F9CF10926C0430916C04880F4F
:102D5000832B80936C0480916A04813061F410921B
:102D60006A0480916C048093BB008091BC0083FD59
:102D7000F8CF85EC01C085EE8093BC00222321F0C2
:102D800080916D048230D1F3809100048F3F79F0FF
:102D900080910004803241F080910004803331F052
:102DA00094E005C091E003C092E001C093E0892F58
:102DB0000F910895613298F420916D04243089F4C4
:102DC00060932204FC0124E234E0D9018A2F821BA3
:102DD000861718F481918D93F9CF80E0089581E0F2
:102DE000089582E0089585ED8093BC008091BC0039
:102DF00084FDFCCF10926D04089585EC8093BC0097
:102E000010926D0408951F920F920FB60F92112425
:102E10002F933F934F935F936F937F938F939F93E2
:102E2000AF93BF93EF93FF938091B900887F803673
:102E300009F49EC078F5883209F45DC090F48031C1
:102E400009F456C038F4882309F4F5C0883009F431
:102E50004FC0F5C0883109F44EC0803209F45FC01C
:102E6000EEC0803409F46AC058F4803309F457C0C6
:102E7000883309F0E4C0809300040E94FD16DFC08F
:102E8000803509F44FC0883509F45DC0883409F0F5
:102E9000D6C0D3C0883909F4C4C0A8F4883709F46F
:102EA00067C038F4883609F463C0803709F460C01D
:102EB000C6C0883809F4B5C0803909F45FC08038CD
:102EC00009F0BDC05BC0803B09F483C038F4803A90
:102ED00009F466C0883A09F47CC0B1C0803C09F4AA
:102EE000A4C0883C09F4A1C0883B09F487C0A7C0EE
:102EF00080916C0410C0909145048091440498170F
:102F000070F5E091450481E08E0F80934504F0E078
:102F1000EA5BFB4F80818093BB0085EC83C080938C
:102F200000048BC0E091450481E08E0F809345043E
:102F30008091BB00F0E0EA5BFB4F808390914504F9
:102F4000809144046BC0E091450481E08E0F809332
:102F500045048091BB00F0E0EA5BFB4F80838091E9
:102F60006B0481116AC081E080936A0484EA5EC0C8
:102F700083E080936D0410920104CFCF809101040F
:102F8000803208F04EC0E091010481E08E0F809302
:102F900001048091BB00F0E0EE5FFB4F8083BDCF6A
:102FA0000E94FD1680910104803230F4E09101040A
:102FB000F0E0EE5FFB4F10826091010470E0E09161
:102FC0006604F091670482E094E009951092010490
:102FD00036C084E080936D04109223041092220482
:102FE000E0916804F09169040995809122048111AF
:102FF00005C081E08093220410922404E091230410
:1030000081E08E0F80932304F0E0EC5DFB4F808124
:103010008093BB009091230480912204981708F4B8
:103020007CCF85E88093BC000AC085EC8093BC000F
:1030300010926D0404C0109200040E94F316FF91D8
:10304000EF91BF91AF919F918F917F916F915F9120
:103050004F913F912F910F900FBE0F901F90189599
:103060000E943F0A880B990B089597FB072E16F4D0
:10307000009407D077FD09D00E946B1807FC05D09B
:103080003EF4909581959F4F0895709561957F4F7F
:103090000895A1E21A2EAA1BBB1BFD010DC0AA1F99
:1030A000BB1FEE1FFF1FA217B307E407F50720F0B1
:1030B000A21BB30BE40BF50B661F771F881F991F2C
:1030C0001A9469F760957095809590959B01AC0175
:1030D000BD01CF010895AA1BBB1B51E107C0AA1F68
:1030E000BB1FA617B70710F0A61BB70B881F991FA9
:1030F0005A95A9F780959095BC01CD010895EE0FE2
:10310000FF1F0590F491E02D0994CF93DF93823057
:10311000910510F482E090E0E0917004F091710468
:1031200020E030E0C0E0D0E0309711F140815181E3
:1031300048175907C0F04817590761F482819381F5
:10314000209719F09B838A832BC0909371048093FE
:10315000700426C02115310519F04217530718F4E1
:103160009A01BE01DF01EF010280F381E02DDCCF87
:103170002115310509F1281B390B2430310590F454
:1031800012968D919C9113976115710521F0FB01A9
:103190009383828304C09093710480937004FD0133
:1031A000329644C0FD01E20FF31F819391932250A8
:1031B00031092D933C933AC020916E0430916F04F5
:1031C000232B41F4209102013091030130936F04CD
:1031D00020936E04209100013091010121153105E9
:1031E00041F42DB73EB74091040150910501241BD5
:1031F000350BE0916E04F0916F04E217F307A0F431
:103200002E1B3F0B2817390778F0AC014E5F5F4F3C
:103210002417350748F04E0F5F1F50936F044093FB
:103220006E048193919302C0E0E0F0E0CF01DF9162
:10323000CF9108950F931F93CF93DF93009709F4D5
:103240008CC0FC013297138212820091700410919D
:1032500071040115110581F420813181820F931FC2
:1032600020916E0430916F042817390779F5F09397
:103270006F04E0936E0471C0D80140E050E0AE17D7
:10328000BF0750F412962D913C911397AD01211573
:10329000310509F1D901F3CF9D01DA01338322838E
:1032A00060817181860F971F8217930769F4EC0183
:1032B00028813981260F371F2E5F3F4F31832083AE
:1032C0008A819B8193838283452B29F4F093710437
:1032D000E093700442C01396FC93EE931297ED01B5
:1032E000499159919E01240F351FE217F30771F49C
:1032F00080819181840F951F029611969C938E93E5
:103300008281938113969C938E931297E0E0F0E074
:10331000D80112968D919C911397009719F0F8019E
:103320008C01F6CF8D919C9198012E5F3F4F820FBB
:10333000931F20916E0430916F042817390769F4A8
:10334000309729F4109271041092700402C0138215
:10335000128210936F0400936E04DF91CF911F913E
:103360000F910895A0E0B0E0E8EBF9E10C945B1C4C
:10337000EC01009721F4CB010E948518B8C0FC0134
:10338000E60FF71F9C0122503109E217F30708F4FA
:10339000ACC0D9010D911C91119706171707B0F019
:1033A0000530110508F49FC0C801049786179707D8
:1033B00008F499C002501109061B170B01931193D1
:1033C0006D937C93CF010E941A198DC05B01A01AE6
:1033D000B10A4C01800E911EA0917004B09171044D
:1033E00040E050E0E12CF12C109709F44AC0A815F8
:1033F000B905D1F56D907C901197630182E0C80EFC
:10340000D11CCA14DB0480F1A3014A195B096A01CB
:1034100082E0C80ED11C1296BC9012971396AC9104
:10342000B5E0CB16D10440F0B282A3835183408330
:10343000D9016D937C930AC00E5F1F4FC301800FAB
:10344000911FF90191838083EB2DFA2FE114F10490
:1034500031F0D7011396FC93EE93129744C0F0938A
:103460007104E09370043FC08D919C9111974817AF
:10347000590708F4AC017D0112960D90BC91A02D66
:10348000B3CF80916E0490916F0488159905E1F493
:1034900046175707C8F480910001909101010097E9
:1034A00041F48DB79EB74091040150910501841BF2
:1034B000950BE817F907C8F4F0936F04E0936E04D6
:1034C000F901718360830FC0CB010E9485187C01D4
:1034D000009759F0A801BE010E948E1ACE010E94E9
:1034E0001A19C70104C0CE0102C080E090E0CDB738
:1034F000DEB7EEE00C94771C662777270C94D41A7D
:1035000091110C94311C803219F089508550C8F704
:10351000089546E352E00E94AD1A0895FB01DC01D4
:1035200002C001900D9241505040D8F70895FB0120
:10353000DC0101900D920020E1F70895FB01DC0110
:103540004150504048F001900D920020C9F701C051
:103550001D9241505040E0F70895FA01A191B081C9
:10356000009719F41097E1F0CD01DC01CD010D9029
:10357000002011F4C00113C0FB012191222319F096
:103580002015D9F7F3CFFB012191201519F41E92D4
:10359000119606C02223C1F70D900020A1F7D0019B
:1035A000FA01A193B0830895A0E0B0E0EAEDFAE15A
:1035B0000C945B1CEC017B016115710519F0DB01BA
:1035C0008D939C938E010F5F1F4F7880872D90E025
:1035D0000E94801A892B11F0E801F4CFBDE27B1222
:1035E00005C00F5F1F4F7980C1E008C0EBE27E127B
:1035F00004C08E010E5F1F4F7980C0E06801F1E0CA
:10360000CF1AD10843E050E06EE970E0C6010E9495
:10361000341C892BF1F4680122E0C20ED11C45E074
:1036200050E069E970E0C6010E94341C892B21F446
:10363000680187E0C80ED11CE114F10419F0D7012C
:10364000CD92DC92C111FFC060E070E080E89FE79E
:1036500003C143E050E066E970E0C6010E94341CFB
:10366000892B51F4E114F10409F4F2C00E5F1F4FED
:10367000F70111830083ECC0680160E070E0CB01CA
:1036800000E010E0F601D0EDD70DDA3058F52C2F20
:103690002260622E2C2F2870C2FF05C0211128C085
:1036A0000F5F1F4F25C0222311F001501109A5E023
:1036B000B0E09B01AC010E944C1C4B015C01880CEA
:1036C000991CAA1CBB1CC501B4016D0F711D811D85
:1036D000911D6839A9E97A078A07A9E19A0740F09C
:1036E000C66005C0DE3F51F4C3FD44C0C8606C2E07
:1036F000BFEFCB1ADB0A7080C62DC4CF2D2F2F7DD4
:103700002531C1F540814D3211F4C06106C04B3204
:1037100021F0319621E030E006C03296D6011196B4
:103720004C9122E030E0A0EDA40FAA3018F0E21B8B
:10373000F30B20C040E050E04038BCE05B075CF495
:103740009A01220F331F220F331F420F531F440FC2
:10375000551F4A0F511D3196DF0111972C91A0ED95
:10376000A20FAA3048F3C4FF03C0519541955109F7
:10377000040F151FC1FF07C0E114F10421F03197B8
:10378000D701ED93FC930E94020AC370C33019F075
:103790006B017C0106C06B017C01F7FAF094F7F82D
:1037A000F09420E030E0A901C701B6010E9455095C
:1037B000882309F445C017FF06C01195019511092A
:1037C000C5EBD0E002C0CDECD0E05E01B8E1AB1AB1
:1037D000B1084601BE2DAF2D90E2E92EF12C0E1559
:1037E0001F0584F0FE012591359145915491B40156
:1037F0008B2F9A2F0E94E80A4B01B82FA92F0E1980
:103800001F09EDCF2497F594E794CA15DB0539F726
:103810006401EB2EFA2E8E2D880F8F2D881F8F3F7F
:1038200049F020E030E0A901C701B6010E94550926
:10383000811106C082E290E0909373048093720439
:10384000C701B60109C060E070E080E89FEF04C0E6
:1038500060E070E080EC9FE7CDB7DEB7EEE00C945F
:10386000771C992788270895FB01DC0141505040BF
:1038700088F08D9181341CF08B350CF4805E65915D
:1038800061341CF06B350CF4605E861B611171F3C2
:10389000990B0895881BFCCF0E948E1CA59F900D4C
:1038A000B49F900DA49F800D911D112408952F9217
:1038B0003F924F925F926F927F928F929F92AF92C0
:1038C000BF92CF92DF92EF92FF920F931F93CF930D
:1038D000DF93CDB7DEB7CA1BDB0B0FB6F894DEBFA4
:1038E0000FBECDBF09942A88398848885F846E84CA
:1038F0007D848C849B84AA84B984C884DF80EE8014
:10390000FD800C811B81AA81B981CE0FD11D0FB61C
:10391000F894DEBF0FBECDBFED010895A29FB001A8
:10392000B39FC001A39F700D811D1124911DB29FF3
:10393000700D811D1124911D089510E0C4E9D0E09F
:1039400004C0FE010E947F182196C539D107C9F72E
:04395000F894FFCF19
:1039540000007404200010000F00020006000C0098
:103964000E000400050009000A0003000B000B0010
:10397400060005000300020004000A000F000E0008
:10398400090010000C000000C8420000C8420000FA
:10399400C8420000C84264005D00140078000000C2
:1039A4007544008089442D2D2D2D2D2D2D2D2D2D4B
:1039B4002D2D2D2D2D2D2D2D2D2D2D2D2D2D2D2D33
:1039C4002D2D2D2D2D2D2D2D2D2D0053656E736F29
:1039D400723A2020202020202000447269766572EB
:1039E400205665723A20202000556E697175652055
:1039F40049443A20202020004D61782056616C759E
:103A0400653A2020202000207554004D696E205610
:103A1400616C75653A20202020005265736F6C75C7
:103A240074696F6E3A202020004C462000205246D4
:103A34002000204C42200020524220000A0D0000A9
:103A4400000000330C7E0DB40BCE0BC00B110C0D1B
:103A54000A006E616E00696E66006F7666002E0065
:103A6400484D43353838330000000000CE111C1295
:103A7400BF00B012CF110000000042151215E61469
:063A8400EE1402151115FD
:00000001FF
