S0230000416363656C65726F6D65746572416E644779726F2D4B616C6D616E2E7372656391
S11300000C9495000C94BD000C94BD000C94BD00A0
S11300100C94BD000C94BD000C94BD000C94BD0068
S11300200C94BD000C94BD000C94BD000C94BD0058
S11300300C94BD000C94BD000C94BD000C94BD0048
S11300400C94D00F0C94BD000C942D0D0C945F0DEA
S11300500C94BD000C94BD000C94BD000C94BD0028
S11300600C9479170C94BD00084AD73B3BCE016E23
S113007084BCBFFDC12F3D6C74319ABD56833DDAFB
S11300803D00C77F11BED9E4BB4C3E916BAAAABE0A
S1130090000000803F004E414E494E495459494E9C
S11300A046CDCCCC3D0AD7233C17B7D13877CC2BDF
S11300B0329595E6241FB14F0A000020410000C884
S11300C04200401C4620BCBE4CCA1B0E5AAEC59D05
S11300D0740000000800020100000304070000008F
S11300E00000000000010204081020408001020406
S11300F00810200102040810200404040404040469
S113010004020202020202030303030303000000C9
S113011000250028002B0000000000240027002AEE
S11301200000F2018F0D8D160E0211241FBECFEFB9
S1130130D8E0DEBFCDBF12E0A0E0B1E0E0E4FAE336
S113014002C005900D92AC32B107D9F724E0ACE2BD
S1130150B2E001C01D92AA37B207E1F710E0C4E98A
S1130160D0E004C02197FE010E94F518C139D107DF
S1130170C9F70E94BD0D0C94131D0C940000089542
S1130180DC01ED91FC910190F081E02D099461E096
S1130190809134010E943E1161E0809132010E94FD
S11301A03E1161E0809130010E943E1161E0809136
S11301B02E010E943E1161E080912C010E943E11AB
S11301C061E080912A010E943E1161E08091280142
S11301D00E943E1161E0809126010E943E1161E07F
S11301E0809124010E943E1161E0809122010E94CD
S11301F03E1161E0809120010E943E1161E08091F6
S11302001E010C943E11CF92DF92EF92FF920F9356
S11302101F93CF93DF93EC018C01000F111F000F8C
S1130220111FF801E05BFD4FC080D180E280F380B4
S113023020E030E0A901C701B6010E94290BCC0FD0
S1130240DD1F18164CF461E0FE01E25FFE4F808171
S11302500E947A1160E013C020E030E0A901C701D8
S1130260B6010E94A30987FF02C060E001C061E0FB
S1130270FE01E25FFE4F80810E947A1161E0FE017F
S1130280EA5FFE4F80810E947A11F801E05BFD4F26
S1130290C080D180E280F38020E030E0A901C70172
S11302A0B6010E94290B18161CF4C701B60103C03D
S11302B0C701B60190580E941A0ACA5EDE4F8881AF
S11302C0DF91CF911F910F91FF90EF90DF90CF902E
S11302D00C94B610CF93DF9368E771E08FE292E05D
S11302E00E94FF1A0E94F21AC0E5D2E06883798363
S11302F08A839B8368E771E080E090E00E94FF1AA4
S11303000E94F21A6C837D838E839F8368E771E079
S113031080E090E00E94FF1A0E94F21A68877987B1
S11303208A879B8768E771E080E090E00E94FF1A6B
S11303300E94F21A6C877D878E879F87DF91CF9109
S11303400895CF93DF9369EC71E08EE093E00E940F
S11303501A0EC0E5D2E0488159816A817B8122E08E
S113036030E08EE093E00E94BC0F6DEC71E08EE013
S113037093E00E941A0E4C815D816E817F8122E0A0
S113038030E08EE093E00E94BC0F62ED71E08EE0FD
S113039093E00E941A0E488559856A857B8522E080
S11303A030E08EE093E00E94BC0F67ED71E08EE0D8
S11303B093E00E941A0E4C855D856E857F8522E050
S11303C030E08EE093E0DF91CF910C94BE0F8091EA
S11303D04F02882331F00E946A010E94A101109209
S11303E04F02089549E350E360E070E086EF92E045
S11303F00E94941288EC92E00E94A51380EA92E095
S11304000E94A51367EF71E086E692E00E9418123D
S11304106CED71E080E692E00C94181280E692E0B4
S11304200E94AA1186E692E00C94AA11CF93DF935E
S113043060E470E084EB93E00E940B1660E170E0EE
S113044084EB93E00E94C00066EB70E084EB93E0E1
S11304500E94C00084EB93E00E948A166AE070E078
S113046080E090E00E943F1060E470E084EB93E051
S11304700E940B166DE070E084EB93E00E94C000D4
S113048060E170E084EB93E00E94C00084EB93E0B1
S11304900E948A1660E470E084EB93E00E940B16DD
S11304A060E270E084EB93E00E94C00084EB93E090
S11304B00E948A1641E050E060E470E084EB93E02F
S11304C00E94871684EB93E00E946415EC0160E4BB
S11304D070E084EB93E00E940B1660E270E084EB22
S11304E093E00E94C000BE016F70772784EB93E015
S11304F00E94C00084EB93E00E948A1660E470E0DE
S113050084EB93E00E940B1665E370E084EB93E0C8
S11305100E94C00084EB93E00E948A1641E050E000
S113052060E470E084EB93E00E94871684EB93E030
S11305300E946415EC0160E470E084EB93E00E9497
S11305400B1665E370E084EB93E00E94C000BE01EB
S1130550617F7727646084EB93E00E94C00084EBA2
S113056093E00E948A1660E470E084EB93E00E94BA
S11305700B1660E370E084EB93E00E94C00084EB10
S113058093E0DF91CF910C948A16CF93DF9360E4CC
S113059070E084EB93E00E940B1662E070E084EB61
S11305A093E00E94C00084EB93E00E948A1646E028
S11305B050E060E470E084EB93E00E94871684EBE3
S11305C093E00E946415EC0184EB93E00E946415AF
S11305D060E070E0782F6C0F7D1F072E000C880BF5
S11305E0990B0E94520A60939C0270939D0280931F
S11305F09E0290939F0284EB93E00E946415EC01A9
S113060084EB93E00E94641560E070E0782F6C0F37
S11306107D1F072E000C880B990B0E94520A6093D1
S113062098027093990280939A0290939B0284EBB0
S113063093E00E946415EC0184EB93E00E9464153E
S113064060E070E0782F6C0F7D1F072E000C880B84
S1130650990B0E94520A60939402709395028093BE
S1130660960290939702DF91CF9108951F93CF93B1
S1130670DF931F92CDB7DEB7162FBC0184EB93E056
S113068049830E940B16612F84EB93E00E94B815F6
S11306904981642F84EB93E00E94B81584EB93E0C6
S11306A00F90DF91CF911F910C948A1640E06EE376
S11306B088E690E00E94360347E065E188E690E032
S11306C00E9436034EE166E188E690E00E9436031C
S11306D040E067E188E690E00C94360366EF71E051
S11306E080E692E00E942D1226E040E052EC61E0A8
S11306F070E08EE093E00E94C80C84EB93E00E94CB
S1130700F7150E94C7000E9416020E94560368EC67
S113071070E086E692E00E94DB116FED71E08EE0FE
S113072093E00E94270E0E941A106093F0027093C7
S1130730F1028093F2029093F3020895EF92FF92F4
S11307400F931F93CF93DF9300D000D0CDB7DEB7C4
S11307507C01162FBC0184EB93E02B833C834983FB
S11307605A830E940B16612F84EB93E00E94B81504
S113077084EB93E00E948A16B70184EB93E00E9415
S11307800B1649815A81B70184EB93E00E948716C6
S11307902B81022F3C81132F84EB93E00E945C1584
S11307A0892B41F084EB93E00E946415F801819356
S11307B08F01F2CF84EB93E00F900F900F900F9086
S11307C0DF91CF911F910F91FF90EF900C948A16B7
S11307D00F931F93CF93DF93CDB7DEB728970FB650
S11307E0F894DEBF0FBECDBF8C019E012F5F3F4F3B
S11307F048E050E06BE188E690E00E949E038B8124
S113080090E0982F88272C81822B20913C013091F5
S11308103D01820F931FF801918380838D8190E0C5
S1130820982F88272E81822B20913A0130913B0109
S1130830820F931F938382832F8130E0322F2227EC
S11308408885282B8091380190913901280F391F10
S113085035832483298130E0322F22278A81282B73
S11308603783268328960FB6F894DEBF0FBECDBF1C
S1130870DF91CF911F910F910895CF93DF93CDB75F
S1130880DEB728970FB6F894DEBF0FBECDBFCE01FA
S113089001960E94E80369817A81072E000C880B77
S11308A0990B0E94520A20E030E046E651E40E948F
S11308B0A80960939002709391028093920290939E
S11308C093026B817C81072E000C880B990B0E948C
S11308D0520A20E030E046E651E40E94A809609301
S11308E08C0270938D0280938E0290938F026D819F
S11308F07E81072E000C880B990B0E94520A20E07F
S113090030E046E651E40E94A8096093880270939F
S1130910890280938A0290938B026F817885605755
S11309207C4C072E000C880B990B0E94520A20E085
S113093030E04CE853E40E94A80920E030E04CE0A9
S113094052E40E94C5080E941A0A7093F50260934B
S1130950F40228960FB6F894DEBF0FBECDBFDF9128
S1130960CF9108952F923F924F925F926F927F9210
S11309708F929F92AF92BF92CF92DF92EF92FF92AB
S11309800F931F93CF93DF93CDB7DEB7E8970FB6DE
S1130990F894DEBF0FBECDBF1C010E94C5020E94A9
S11309A03D040E941A10C090F002D090F102E09031
S11309B0F202F090F3026C197D098E099F090E94DE
S11309C0500A20E034E244E759E40E94A80969A7E8
S11309D07AA78BA79CA70E941A106093F0027093C9
S11309E0F1028093F2029093F302C0909402D090AB
S11309F09502E0909602F090970280909802909071
S1130A009902A0909A02B0909B02A7019601C50199
S1130A10B4010E94440921EE3EE245E652E40E94FC
S1130A20360B2B013C01A5019401C501B4010E94C0
S1130A30360B4B015C01A7019601C701B6010E9468
S1130A40360B9B01AC01C501B4010E94C5080E948C
S1130A50A90B9B01AC0180919C0290919D02A091F5
S1130A609E02B0919F02BC01CD0190580E94A8093A
S1130A700E94740921EE3EE245E652E40E94360BE0
S1130A8069AB7AAB8BAB9CAB20E030E043E053E442
S1130A9060919002709191028091920290919302E0
S1130AA00E94A8096DA37EA38FA398A720E030E03D
S1130AB043E053E460918C0270918D0280918E0228
S1130AC090918F020E94A8094B015C0120E030E064
S1130AD044EB52ECC301B2010E94A30987FF10C08A
S1130AE020E030E044EB52E46091740270917502AE
S1130AF080917602909177020E94290B1816D4F007
S1130B0020E030E044EB52E4C301B2010E94290B1F
S1130B1018167CF520E030E044EB52EC609174024E
S1130B207091750280917602909177020E94A309D8
S1130B3087FF1FC0B301A20188EC92E00E94561502
S1130B4040927C0250927D0260927E0270927F02FB
S1130B50409274025092750260927602709277020B
S1130B6040928402509285026092860270928702BB
S1130B7016C0C9A4DAA4EBA4FCA40DA11EA12FA144
S1130B8038A5B301A20188EC92E00E94D7136093C8
S1130B907402709375028093760290937702C090EA
S1130BA07402D0907502E0907602F090770220E013
S1130BB030E0A901C701B6010E94290B18165CF4A4
S1130BC020E030E044EB52E4C701B6010E94290B57
S1130BD018165CF00EC020E030E044EB52ECC70184
S1130BE0B6010E94A30987FF04C0B7FAB094B7F80E
S1130BF0B094C9A4DAA4EBA4FCA49501840149A986
S1130C005AA96BA97CA980EA92E00E94D7136DAB24
S1130C107EAB8FAB98AF6093700270937102809338
S1130C2072029093730229A53AA54BA55CA56DA108
S1130C307EA18FA198A50E94360B6DA77EA78FA7D2
S1130C4098AB2091840230918502409186025091A4
S1130C5087020E94C5086DA37EA38FA398A7609303
S1130C60840270938502809386029093870229A55B
S1130C703AA54BA55CA5C501B4010E94360B6B01D6
S1130C807C01209180023091810240918202509136
S1130C9083020E94C5084B015C016093800270933B
S1130CA08102809382029093830220917C0230918E
S1130CB07D0240917E0250917F026DA57EA58FA595
S1130CC098A90E94C5082BE734E14EE65FE30E9431
S1130CD0360B6DA77EA78FA798AB29E23CE54FE8BA
S1130CE05DE3C301B2010E94360B9B01AC016DA50B
S1130CF07EA58FA598A90E94C50860937C02709375
S1130D007D0280937E0290937F022091780230913D
S1130D10790240917A0250917B02C701B6010E9488
S1130D20C5082BE734E14EE65FE30E94360B6B0106
S1130D307C0129E23CE54FE85DE369A97AA98BA926
S1130D409CA90E94360B9B01AC01C701B6010E940D
S1130D50C508609378027093790280937A02909325
S1130D607B0220E030E044E353EC6DA17EA18FA12F
S1130D7098A50E94A30987FD0CC020E030E044E35D
S1130D8053E46DA17EA18FA198A50E94290B18168A
S1130D9084F48091740290917502A0917602B091CE
S1130DA077028093840290938502A0938602B09385
S1130DB0870220E030E044E353ECC501B4010E9413
S1130DC0A30987FD0AC020E030E044E353E4C501F1
S1130DD0B4010E94290B181664F48DA99EA9AFA929
S1130DE0B8AD8093800290938102A0938202B09365
S1130DF08302BE016F5F7F4F86EF92E00E9426134D
S1130E002D893E894F89588D698D7A8D8B8D9C8D66
S1130E100E9444092EEA37E441E65EE30E94C508D5
S1130E206B017C0120E030E0A9010E94A30987FF47
S1130E300AC02BED3FE049EC50E4C701B6010E9423
S1130E40C5086B017C012BED3FE049EC50E4C70180
S1130E50B6010E94290B181654F42BED3FE049EC1F
S1130E6050E4C701B6010E94C4086B017C0120E074
S1130E7030E044E353E4C701B6010E94360B2BED86
S1130E803FE049E450E40E94A80960936C02709327
S1130E906D0280936E0290936F02232809F4E6C0DA
S1130EA020E030E040E858E360919C0270919D029C
S1130EB080919E0290919F020E94360B2AE038EEA8
S1130EC04CE151E40E94360BAB01BC0122E030E05E
S1130ED08EE093E00E94BC0F68E771E08EE093E03F
S1130EE00E941A0E20E030E040E858E36091980236
S1130EF07091990280919A0290919B020E94360B04
S1130F002AE038EE4CE151E40E94360BAB01BC01FF
S1130F1022E030E08EE093E00E94BC0F68E771E0CD
S1130F208EE093E00E941A0E20E030E040E858E39F
S1130F30609194027091950280919602909197022B
S1130F400E94360B2AE038EE4CE151E40E94360B45
S1130F50AB01BC0122E030E08EE093E00E94BC0FC4
S1130F6068E771E08EE093E00E941A0E40919002CF
S1130F7050919102609192027091930222E030E0CC
S1130F808EE093E00E94BC0F68E771E08EE093E08E
S1130F900E941A0E40918C0250918D0260918E0233
S1130FA070918F0222E030E08EE093E00E94BC0F4B
S1130FB068E771E08EE093E00E941A0E4091880287
S1130FC05091890260918A0270918B0222E030E094
S1130FD08EE093E00E94BC0F68E771E08EE093E03E
S1130FE00E941A0E4D895E896F89788D22E030E067
S1130FF08EE093E00E94BC0F68E771E08EE093E01E
S11310000E941A0E498D5A8D6B8D7C8D22E030E042
S11310108EE093E00E94BC0F68E771E08EE093E0FD
S11310200E941A0E40916C0250916D0260916E0202
S113103070916F0222E030E08EE093E00E94BC0FDA
S113104068E771E08EE093E00E941A0E22E030E03F
S113105049A55AA56BA57CA58EE093E00E94BC0F20
S113106060E672E08EE093E00E940C0E609136011F
S113107070913701072E000C880B990B0E943F10CA
S1131080E8960FB6F894DEBF0FBECDBFDF91CF91C7
S11310901F910F91FF90EF90DF90CF90BF90AF9092
S11310A09F908F907F906F905F904F903F902F9084
S11310B008950F931F93CF93DF938C01C0E0D0E08A
S11310C06091360170913701C8010E94AB18C617B0
S11310D0D70734F480E090E00E94B2042196F0CF68
S11310E0DF91CF911F910F910895CF93DF93C1E0CA
S11310F0DFE18EE093E00E94020C181619061CF53D
S113110080914F0281111FC08EE093E00E941C0C5D
S1131110E0912E028D3071F0AE2FB0E0A15DBD4F95
S11311208C93EF5FE03218F4E0932E02E2CFD09379
S11311302E02DFCFF0E0E15DFD4F108210922E020F
S1131140C0934F02D6CFDF91CF91089584E690E00B
S11311500E94590884E690E0909337018093360109
S11311600E9475080E94E70180E090E00E9403015C
S113117081E090E00E94030182E090E00E9403017C
S113118083E090E00C9403015058BB27AA270E94E7
S1131190DC080C94EF0A0E94E10A38F00E94E80A85
S11311A020F039F49F3F19F426F40C94B70A0EF496
S11311B0E095E7FB0C94B10AE92F0E94000B58F369
S11311C0BA17620773078407950720F079F4A6F528
S11311D00C94220B0EF4E0950B2EBA2FA02D0B01CC
S11311E0B90190010C01CA01A0011124FF27591B68
S11311F099F0593F50F4503E68F11A16F040A22F6E
S1131200232F342F4427585FF3CF469537952795DE
S1131210A795F0405395C9F77EF41F16BA0B620BDD
S1131220730B840BBAF09150A1F0FF0FBB1F661F24
S1131230771F881FC2F70EC0BA0F621F731F841F67
S113124048F4879577956795B795F7959E3F08F08D
S1131250B0CF9395880F08F09927EE0F979587954F
S113126008950E94E10A60F080E891E009F49EEF9D
S11312700E94E80A28F040E851E071F45EEF0CC0E7
S11312800C94B70A0C94220BE92FE0780E94000B0F
S113129040F3092E052AB1F32617370748075907E3
S11312A038F00E2E07F8E02569F0E025E0640AC066
S11312B0EF6307F8009407FADB01B9019D01DC0133
S11312C0CA01AD01EF930E94BF090E94EF0A0E9478
S11312D074095F91552339F02BED3FE049E450FD4B
S11312E049EC0C94C5080895DF93DD27B92FBF7727
S11312F040E85FE31616170648075B0718F4D92F72
S11313000E942E0B9F938F937F936F930E94E90B00
S1131310E8E6F0E00E94BA0A0E94EF0A2F913F919A
S11313204F915F910E94490BDD2351F09058A2EA3E
S11313302AED3FE049EC5FE3D0785D270E94DC08AA
S1131340DF910C94EF0A0E948D0A08F481E008955D
S11313500E94BC090C94EF0A0E94E80A58F00E940B
S1131360E10A40F029F45F3F29F00C94B10A5111CD
S11313700C94230B0C94B70A0E94000B68F3992376
S1131380B1F3552391F3951B550BBB27AA2762177D
S11313907307840738F09F5F5F4F220F331F441F8A
S11313A0AA1FA9F335D00E2E3AF0E0E832D09150BE
S11313B05040E695001CCAF72BD0FE2F29D0660FAB
S11313C0771F881FBB1F261737074807AB07B0E8EE
S11313D009F0BB0B802DBF01FF2793585F4F3AF0F4
S11313E09E3F510578F00C94B10A0C94230B5F3F97
S11313F0E4F3983ED4F3869577956795B795F7957A
S11314009F5FC9F7880F911D9695879597F9089561
S1131410E1E0660F771F881FBB1F621773078407FD
S1131420BA0720F0621B730B840BBA0BEE1F88F70C
S1131430E09508950E94210A6894B1110C94230B3D
S113144008950E94080B88F09F5798F0B92F9927A8
S1131450B751B0F0E1F0660F771F881F991F1AF09B
S1131460BA95C9F714C0B13091F00E94220BB1E0D3
S113147008950C94220B672F782F8827B85F39F0D2
S1131480B93FCCF3869577956795B395D9F73EF434
S113149090958095709561957F4F8F4F9F4F0895DC
S11314A0E89409C097FB3EF49095809570956195FA
S11314B07F4F8F4F9F4F9923A9F0F92F96E9BB27B0
S11314C09395F695879577956795B795F111F8CF2C
S11314D0FAF4BB0F11F460FF1BC06F5F7F4F8F4F97
S11314E09F4F16C0882311F096E911C0772321F08D
S11314F09EE8872F762F05C0662371F096E8862F25
S113150070E060E02AF09A95660F771F881FDAF77B
S1131510880F9695879597F90895990F0008550FA8
S1131520AA0BE0E8FEEF16161706E807F907C0F065
S113153012161306E407F50798F0621B730B840B6D
S1131540950B39F40A2661F0232B242B252B21F447
S113155008950A2609F4A140A6958FEF811D811DE7
S1131560089597F99F6780E870E060E008959FEF21
S113157080EC0895DF93CF931F930F93FF92EF9224
S1131580DF927B018C01689406C0DA2EEF010E9481
S1131590490BFE01E894A59125913591459155910A
S11315A0A6F3EF010E94DC08FE019701A801DA947A
S11315B069F7DF90EF90FF900F911F91CF91DF912A
S11315C0089500240A9416161706180609060895A5
S11315D000240A9412161306140605060895092E0B
S11315E00394000C11F4882352F0BB0F40F4BF2B7A
S11315F011F460FF04C06F5F7F4F8F4F9F4F0895BA
S113160057FD9058440F551F59F05F3F71F04795AF
S1131610880F97FB991F61F09F3F79F08795089594
S1131620121613061406551FF2CF4695F1DF08C0B3
S1131630161617061806991FF1CF869571056105D0
S113164008940895E894BB2766277727CB0197F978
S113165008950E948D0A08F48FEF08959B01AC0150
S113166060E070E080E89FE30C94A8090E94490BB5
S11316700C94EF0A0E94E10A38F00E94E80A20F074
S1131680952311F00C94B10A0C94B70A11240C940C
S1131690230B0E94000B70F3959FC1F3950F50E04C
S11316A0551F629FF001729FBB27F00DB11D639F10
S11316B0AA27F00DB11DAA1F649F6627B00DA11DB6
S11316C0661F829F2227B00DA11D621F739FB00D5C
S11316D0A11D621F839FA00D611D221F749F3327CC
S11316E0A00D611D231F849F600D211D822F762F65
S11316F06A2F11249F5750409AF0F1F088234AF042
S1131700EE0FFF1FBB1F661F771F881F91505040AD
S1131710A9F79E3F510580F00C94B10A0C94230B59
S11317205F3FE4F3983ED4F3869577956795B79534
S1131730F795E7959F5FC1F7FE2B880F911D96954E
S1131740879597F9089519F416F40C94B70A0C9434
S1131750ED0B0E94080BB8F39923C9F3B6F39F5716
S1131760550B87FF0E94FB0B0024A0E640EA900182
S113177080585695979528F4805C660F771F881FCC
S113178020F026173707480730F4621B730B840BCD
S1131790202931294A2BA695179407942025312511
S11317A04A2758F7660F771F881F20F02617370738
S11317B0480730F4620B730B840B200D311D411D5F
S11317C0A09581F7B901842F9158880F9695879534
S11317D008959B01AC010C94360B9F3F31F091505E
S11317E020F4879577956795B795880F911D969501
S11317F0879597F9089591505040660F771F881F79
S1131800D2F70895FC01918D228D892F90E0805CA0
S11318109F4F821B91098F7399270895FC01918D25
S1131820828D981731F0828DE80FF11D858D90E03F
S113183008958FEF9FEF0895FC01918D828D981785
S113184061F0828DDF01A80FB11D5D968C91928DA0
S11318509F5F9F73928F90E008958FEF9FEF08959D
S113186085E89DE0892B49F080E090E0892B29F000
S11318700E94850D81110C9400000895FC01848D53
S1131880DF01A80FB11DA35ABF4F2C91848D90E0A6
S113189001968F739927848FA689B7892C93A08981
S11318A0B1898C9180648C93938D848D981306C038
S11318B00288F389E02D80818F7D80830895CF9302
S11318C0DF93EC01888D8823C9F0EA89FB89808144
S11318D085FD05C0A889B9898C9186FD0FC00FB616
S11318E007FCF5CF808185FFF2CFA889B9898C9157
S11318F085FFEDCFCE010E943E0CE7CFDF91CF9163
S11319000895EF92FF920F931F93CF93DF93EC010F
S113191081E0888F9B8D8C8D981305C0E889F989A7
S1131920808185FD24C0F62E0B8D10E00F5F1F4FC4
S11319300F731127E02E8C8DE8120CC00FB607FC34
S1131940FACFE889F989808185FFF5CFCE010E941D
S11319503E0CF1CF8B8DFE01E80FF11DE35AFF4FD2
S1131960F0820B8FEA89FB898081806207C0EE894F
S1131970FF896083E889F98980818064808381E0BC
S113198090E0DF91CF911F910F91FF90EF90089518
S1131990CF92DF92EF92FF921F93CF93DF93EC01EC
S11319A06A017B01122FE889F98982E0808341155D
S11319B0514E61057105B1F060E079E08DE390E08E
S11319C0A70196010E94BF18DA01C9010197A10974
S11319D0B109B695A79597958795AC01411580E116
S11319E05807A8F0E889F989108260E874E88EE164
S11319F090E0A70196010E94BF18BA01A9014150C5
S1131A005109610971097695679557954795EC8554
S1131A10FD855083EE85FF854083188EEC89FD8912
S1131A201083EA89FB89808180618083EA89FB894C
S1131A30808188608083EA89FB89808180688083D3
S1131A40EA89FB8980818F7D8083DF91CF911F910B
S1131A50FF90EF90DF90CF9008951F920F920FB6F2
S1131A600F9211242F938F939F93EF93FF93E09101
S1131A701E03F0911F038081E0912403F09125035C
S1131A8082FD12C09081809127038F5F8F73209114
S1131A902803821751F0E0912703F0E0E25FFC4F46
S1131AA0958F8093270301C08081FF91EF919F91CF
S1131AB08F912F910F900FBE0F901F9018951F922A
S1131AC00F920FB60F9211242F933F934F935F936E
S1131AD06F937F938F939F93AF93BF93EF93FF93F2
S1131AE08EE093E00E943E0CFF91EF91BF91AF9185
S1131AF09F918F917F916F915F914F913F912F9122
S1131B000F900FBE0F901F9018958EE093E00E94E7
S1131B10020C21E0892B09F420E0822F0895EEE0E5
S1131B20F3E01382128288EE93E0A0E0B0E08483B5
S1131B309583A683B78389EE91E09183808385ECB6
S1131B4090E09587848784EC90E09787868780EC83
S1131B5090E0918B808B81EC90E0938B828B82EC74
S1131B6090E0958B848B86EC90E0978B868B118E1E
S1131B70128E138E148E089508950E947B100E9475
S1131B80BC0D0E946E03C0E3DCE00E94A60820970F
S1131B90E1F30E94300CF9CFCF92DF92EF92FF92E3
S1131BA00F931F93CF93DF936C017A018B01C0E0F5
S1131BB0D0E0CE15DF0589F0D8016D918D01D601F5
S1131BC0ED91FC910190F081E02DC6010995892BDE
S1131BD011F47E0102C02196ECCFC701DF91CF91B1
S1131BE01F910F91FF90EF90DF90CF9008956115B2
S1131BF0710579F0FB0101900020E9F73197AF01FD
S1131C00461B570BDC01ED91FC910280F381E02D22
S1131C10099480E090E00895DC01ED91FC91DB01F2
S1131C2014964D915C9115976D917C910280F3818E
S1131C30E02D09940C94F70DDC01ED91FC910190D9
S1131C40F081E02D099465EF71E00C94F70D0F938A
S1131C501F93CF93DF93EC010E94F70D8C01CE010B
S1131C600E94230E800F911FDF91CF911F910F913E
S1131C7008958F929F92AF92BF92CF92DF92EF928C
S1131C80FF920F931F93CF93DF93CDB7DEB7A19746
S1131C900FB6F894DEBF0FBECDBF7C01D42EC52E87
S1131CA0DB0119A2223008F42AE08E010F5D1F4FD8
S1131CB0822E912CA12CB12C6D2D7C2DCD01A50152
S1131CC094010E94BF18D22EC32EDA0101501109CB
S1131CD06A3071058105910510F4605D01C0695C8D
S1131CE0F8016083232B242B252B31F7B801C7017E
S1131CF00E94F70DA1960FB6F894DEBF0FBECDBFBC
S1131D00DF91CF911F910F91FF90EF90DF90CF90D3
S1131D10BF90AF909F908F900895CF92DF92EF92F3
S1131D20FF920F931F93CF93DF93EC016A017B0122
S1131D302115310579F4E881F9810190F081E02DD4
S1131D40642FDF91CF911F910F91FF90EF90DF905F
S1131D50CF9009942A303105E9F477FF1AC06DE277
S1131D600E941C0E8C0144275527BA014C195D09A9
S1131D706E097F092AE0CE010E94390E800F911F5F
S1131D80DF91CF911F910F91FF90EF90DF90CF9053
S1131D9008952AE0B701A601CE01DF91CF911F91EA
S1131DA00F91FF90EF90DF90CF900C94390E4F92EB
S1131DB05F926F927F928F929F92AF92BF92CF92D7
S1131DC0DF92EF92FF92CF93DF93EC016A017B01E4
S1131DD0B22E9A01AB01C701B6010E94A61888234E
S1131DE019F068EF71E027C026013701E89477F80D
S1131DF02FEF3FEF4FE75FE7C301B2010E94A61840
S1131E0081110DC02FEF3FEF4FE75FE7C301B20130
S1131E100E94A30918161CF46CEF71E00CC02FEF9C
S1131E203FEF4FE75FE4C701B6010E94290B181684
S1131E309CF460E072E0CE01DF91CF91FF90EF90CF
S1131E40DF90CF90BF90AF909F908F907F906F90D6
S1131E505F904F900C94F70D2FEF3FEF4FE75FEC3F
S1131E60C701B6010E94A30987FDE3CF20E030E05B
S1131E70A901C701B6010E94A30987FF0AC06DE248
S1131E80CE010E941C0E4C01F7FAF094F7F8F0947E
S1131E9002C0812C912CA12C60E070E080E09FE3D3
S1131EA0AB1441F020E030E040E251E40E94A80984
S1131EB0A394F6CF9B01AC01C701B6010E94C508EB
S1131EC02B013C010E94210A6B017C010E94500AF3
S1131ED09B01AC01C301B2010E94C4082B013C0167
S1131EE02AE0B701A601CE010E94390E7C01E80C5C
S1131EF0F91CBB2039F064E072E0CE010E94F70DBA
S1131F00E80EF91EDB2CDD2039F120E030E040E260
S1131F1051E4C301B2010E94360B2B013C010E9423
S1131F201A0A4B01770FAA08BB082AE030E0B50172
S1131F30A401CE010E948D0EE80EF91EC501B40164
S1131F400E94520A9B01AC01C301B2010E94C40861
S1131F502B013C01DA94D7CFC701DF91CF91FF90D9
S1131F60EF90DF90CF90BF90AF909F908F907F9035
S1131F706F905F904F9008950C94D70E0F931F931A
S1131F80CF93DF93EC010E94D70E8C01CE010E9407
S1131F90230E800F911FDF91CF911F910F91089510
S1131FA01F920F920FB60F9211242F933F938F938A
S1131FB09F93AF93BF938091AC039091AD03A09195
S1131FC0AE03B091AF033091AB0323E0230F2D3761
S1131FD020F40196A11DB11D05C026E8230F029629
S1131FE0A11DB11D2093AB038093AC039093AD036B
S1131FF0A093AE03B093AF038091B0039091B1036B
S1132000A091B203B091B3030196A11DB11D8093B9
S1132010B0039093B103A093B203B093B303BF9101
S1132020AF919F918F913F912F910F900FBE0F9081
S11320301F9018953FB7F8948091B0039091B10325
S1132040A091B203B091B30326B5A89B05C02F3F5E
S113205019F00196A11DB11D3FBFBA2FA92F982FCA
S11320608827820F911DA11DB11DBC01CD0142E045
S1132070660F771F881F991F4A95D1F708958F928D
S11320809F92AF92BF92CF92DF92EF92FF926B0139
S11320907C010E941A104B015C01C114D104E104BB
S11320A0F10401F10E9491160E941A10DC01CB0187
S11320B088199909AA09BB09883E9340A105B1056D
S11320C060F321E0C21AD108E108F10888EE880E15
S11320D083E0981EA11CB11CC114D104E104F104D5
S11320E019F7DBCFFF90EF90DF90CF90BF90AF90C8
S11320F09F908F900895789484B5826084BD84B550
S1132100816084BD85B5826085BD85B5816085BDEE
S1132110EEE6F0E0808181608083E1E8F0E0108207
S1132120808182608083808181608083E0E8F0E048
S1132130808181608083E1EBF0E080818460808332
S1132140E0EBF0E0808181608083EAE7F0E0808169
S113215084608083808182608083808181608083C9
S11321608081806880831092C10008951F93CF936B
S1132170DF93182FEB0161E00E943E11209711F4C8
S113218060E004C0CF3FD10539F461E0812FDF91D5
S1132190CF911F910C947A11E12FF0E0EF52FF4F91
S11321A0E491E330F9F048F4E130B9F0E230A1F51C
S11321B084B5806284BDC8BD34C0E730E9F0E8303E
S11321C019F1E43049F580918000806280938000A9
S11321D0D0938B00C0938A0024C084B5806884BDEA
S11321E0C7BD1FC080918000806880938000D09319
S11321F08900C093880015C08091B00080688093E6
S1132200B000C093B3000DC08091B0008062809391
S1132210B000C093B40005C0C038D1050CF0B5CFF0
S1132220AFCFDF91CF911F910895833081F028F4CF
S1132230813099F08230A1F008958730A9F0883078
S1132240B9F08430D1F4809180008F7D03C08091F7
S113225080008F7780938000089584B58F7702C0C3
S113226084B58F7D84BD08958091B0008F7703C0BD
S11322708091B0008F7D8093B0000895CF93DF9359
S113228090E0FC01EB51FF4F2491FC01E750FF4F1C
S11322908491882361F190E0880F991FFC01E95E25
S11322A0FE4FC591D491FC01E35FFE4FA591B4911B
S11322B0611109C09FB7F89488812095822388838F
S11322C0EC912E230BC0623061F49FB7F8943881EF
S11322D0822F809583238883EC912E2B2C939FBF90
S11322E006C08FB7F894E8812E2B28838FBFDF9127
S11322F0CF9108951F93CF93DF93282F30E0F901F6
S1132300EF52FF4F8491F901EB51FF4FD491F90142
S1132310E750FF4FC491CC23C9F0162F81110E94BE
S11323201511EC2FF0E0EE0FFF1FE35FFE4FA591B8
S1132330B4918FB7F894111105C09C91ED2FE095DD
S1132340E92302C0EC91ED2BEC938FBFDF91CF9189
S11323501F910895FC01808191810C949019CF9371
S1132360DF93EC0188819981009711F00E94901904
S1132370198218821D821C821B821A82DF91CF91DE
S113238008950F931F93CF93DF93EC018B016F5F3D
S11323907F4F888199810E94281A009731F0998390
S11323A088831B830A8381E001C080E0DF91CF91A1
S11323B01F910F910895CF93DF93EC018881998148
S11323C0892B29F08A819B818617970760F4CE01B7
S11323D00E94C111882341F08C819D81892B19F4BD
S11323E0E881F981108281E0DF91CF910895EF9225
S11323F0FF920F931F93CF93DF93EC017B018A012C
S1132400BA010E94DB11811104C0CE010E94AF11F8
S113241007C01D830C83B701888199810E940D1B1D
S1132420CE01DF91CF911F910F91FF90EF9008950E
S1132430FC011182108213821282158214826115AA
S1132440710551F0FB0101900020E9F73197AF01CC
S1132450461B570B0C94F7110895CF93DF93EC01AF
S11324606115710559F0FB0101900020E9F73197DE
S1132470AF01461B570B0E94F71102C00E94AF1117
S1132480CE01DF91CF91089508950F931F93CF93B9
S1132490DF938C01EB0188E2FB0111928A95E9F745
S11324A04BE050E066E072E0CE010E94141B1B86F4
S11324B081E090E0A0E0B0E08C879D87AE87BF8785
S11324C0F80184899589A689B789888B998BAA8B09
S11324D0BB8B82E090E0A0E0B0E08C8B9D8BAE8B58
S11324E0BF8B1CA21DA21EA21FA280E090E0A8E444
S11324F0B4E4888F998FAA8FBB8F80E090E0A8E422
S1132500B4EC8C8F9D8FAE8FBF8F8DEC9CECACE4C4
S1132510BEE388A399A3AAA3BBA3DF91CF911F9184
S11325200F9108950C94921622E132E0FC0131835C
S11325302083448B558B668B778B08956F927F92A3
S11325408F929F92AF92BF92CF92DF92EF92FF92BF
S11325500F931F93CF93DF938C016EE184EB93E091
S11325600E94011663E084EB93E00E94B81584EBAB
S113257093E00E948A1646E06EE184EB93E00E94A9
S1132580841684EB93E00E945C150697D4F384EBE5
S113259093E00E946415682E84EB93E00E94641516
S11325A0782E84EB93E00E946415A82E84EB93E0CC
S11325B00E946415B82E84EB93E00E946415882E63
S11325C084EB93E00E946415982ED62CC12CB6019E
S11325D06729072E000C880B990B0E94520AF801F8
S11325E06483758386839783F82CE12CB70169296A
S11325F0072E000C880B990B0E94520AF801608781
S1132600718782879387DA2DF0E0CF2FBE016B2983
S1132610072E000C880B990B0E94520AF80164875C
S1132620758786879787108A118A128A138ADF91A1
S1132630CF911F910F91FF90EF90DF90CF90BF90BB
S1132640AF909F908F907F906F900895CF92DF927C
S1132650EF92FF920F931F93CF93DF938C01EB01C3
S113266084E2FB0111928A95E9F7C8010E949E1247
S113267084E290E0A0E0B0E088839983AA83BB83DE
S1132680F80184899589A689B7898C839D83AE8353
S1132690BF8382E090E0A0E0B0E088879987AA87B2
S11326A0BB87188A198A1A8A1B8AC0904201D09063
S11326B04301E0904401F0904501A7019601648133
S11326C07581868197810E94A80920E030E048EC5A
S11326D052E40E94360B6C8B7D8B8E8B9F8BA701F3
S11326E09601F80160857185828593850E94A80909
S11326F020E030E048EC52E40E94360B688F798F7A
S11327008A8F9B8F20913E0130913F01409140017F
S113271050914101F80164857585868597850E94ED
S1132720A80920E030E048EC52E40E94360B6C8F9C
S11327307D8F8E8F9F8F81E0DF91CF911F910F91BD
S1132740FF90EF90DF90CF900895FC018FE692E127
S1132750A3E8BAE380839183A283B38386EA9BE9E7
S1132760A4E4BBE384839583A683B7838FE892ECC8
S1132770A5EFBCE380879187A287B387148615866B
S113278016861786108A118A128A138A108E118E61
S1132790128E138E148E158E168E178E10A211A201
S11327A012A213A214A215A216A217A208952F9280
S11327B03F924F925F926F927F928F929F92AF92CD
S11327C0BF92CF92DF92EF92FF920F931F93CF931A
S11327D0DF93CDB7DEB76C970FB6F894DEBF0FBEAC
S11327E0CDBF1C014D8B5E8B6F8B788FC901B801F7
S11327F0D10150962D913D914D915C915397298B28
S11328003A8B4B8B5C8B0E94C4089B01AC01F10199
S1132810648B758B868B978BC701B6010E94360B30
S1132820D1011C962D913D914D915C911F970E9471
S1132830C5086D877E878F87988BD10194962D91DB
S11328403D914D915C9197972D833E834F8358879B
S1132850C701B6010E94360B4B015C01F101448CA7
S1132860558C668C778C20A131A142A153A1298774
S11328703A874B875C87A30192010E94C40829858B
S11328803A854B855C850E94C408F1012081318121
S1132890428153810E94C5089B01AC01C701B60166
S11328A00E94360BD10158962D913D914D915C912A
S11328B05B970E94C50869837A838B839C83A501F7
S11328C09401C301B2010E94C4082B013C01A5017B
S11328D0940169857A858B859C850E94C4086987E3
S11328E07A878B879C87F1012481358146815781C2
S11328F0C701B6010E94360B9B01AC016D817E813C
S11329008F8198850E94C508698F7A8F8B8F9C8FE1
S1132910D10118962D913D914D915C911B97698140
S11329207A818B819C810E94C5086B017C019B018B
S1132930AC0169817A818B819C810E94A8094B0139
S11329405C01A701960169857A858B859C850E9427
S1132950A8096B017C012D853E854F8558896D89B9
S11329607E898F89988D0E94C4086D837E838F83AE
S113297098879B01AC01C501B4010E94360B9B01F1
S1132980AC016D857E858F8598890E94C5086D8709
S11329907E878F87988BF1016487758786879787F1
S11329A02D813E814F815885C701B6010E94360BA7
S11329B09B01AC0169897A898B899C890E94C5082D
S11329C0D10150966D937D938D939C935397298158
S11329D03A814B815C81C501B4010E94360B9B0195
S11329E0AC0169817A818B819C810E94C408F101C8
S11329F0608F718F828F938FA3019201C501B401FF
S1132A000E94360B9B01AC01C301B2010E94C408B1
S1132A10D1015C966D937D938D939C935F972981EF
S1132A203A814B815C81C701B6010E94360B9B0140
S1132A30AC0169857A858B859C850E94C408F10167
S1132A4060A371A382A393A3A3019201C701B6015A
S1132A500E94360B9B01AC01698D7A8D8B8D9C8D08
S1132A600E94C408D10194966D937D938D939C9399
S1132A7097976D857E858F8598896C960FB6F894A7
S1132A80DEBF0FBECDBFDF91CF911F910F91FF909D
S1132A90EF90DF90CF90BF90AF909F908F907F90FA
S1132AA06F905F904F903F902F900895FC01448762
S1132AB055876687778708958091E40390E0209195
S1132AC0E503821B910908959091E5038091E40345
S1132AD0981750F4E92FF0E0EA51FC4F208130E0E0
S1132AE09F5F9093E50302C02FEF3FEFC901089564
S1132AF0E091E5038091E403E81730F4F0E0EA5153
S1132B00FC4F808190E008958FEF9FEF0895089522
S1132B10CF92DF92EF92FF920F931F93CF93DF93A5
S1132B207C01262F972F8A018091C003882391F07E
S1132B30C62FD72F6E01C40ED51ECC15DD0571F03E
S1132B406991D701ED91FC910190F081E02DC701CD
S1132B500995F3CF642F822F0E945017C801DF918B
S1132B60CF911F910F91FF90EF90DF90CF90089538
S1132B70CF93DF931F92CDB7DEB769832091C00353
S1132B802223D1F02091C103203240F021E030E033
S1132B90FC013383228380E090E015C08091C2035E
S1132BA0E82FF0E0ED53FC4F998190838F5F809381
S1132BB0C2038093C10305C061E0CE0101960E9467
S1132BC0501781E090E00F90DF91CF910895FC01C0
S1132BD01382128288EE93E0A0E0B0E084839583B0
S1132BE0A683B78380E292E0918380830895109254
S1132BF0E5031092E4031092C2031092C1030C94F3
S1132C00941681E08093C0036093E3031092C2039F
S1132C101092C10308950C9401160F93062F21E01E
S1132C204091C10363EC73E08091E3030E94FA16C0
S1132C301092C2031092C1031092C0030F91089521
S1132C404F925F926F927F92AF92BF92CF92EF9228
S1132C50FF920F931F93CF93DF935C01F62ED42F33
S1132C6028013901EE2021F10E940116CE2DC43035
S1132C7008F0C3E0C150C0F0D501ED91FC91B8E07B
S1132C80CB9FC0011124A301920104C0569547951E
S1132C90379527958A95D2F7CA01B9010190F08139
S1132CA0E02DC5010995E6CF60E0C5010E940D162F
S1132CB04D2FD13208F040E22C2D66EE73E08F2DBB
S1132CC00E94B2161092E5038093E403DF91CF9142
S1132CD01F910F91FF90EF90CF90BF90AF907F9096
S1132CE06F905F904F900895CF92EF920F931F9340
S1132CF0C22EE12C00E010E098010E9420161F91E2
S1132D000F91EF90CF90089521E00C94741621E078
S1132D100C94741661E00C940D1684EB93E00C94FF
S1132D20E71508950C9490191092730481E0809330
S1132D3071041092700461E082E10E947A1161E0F2
S1132D4083E10E947A11E9EBF0E080818E7F808339
S1132D5080818D7F808388E48093B80085E48093AC
S1132D60BC000895413208F043C09091730491115E
S1132D70FCCF91E090937304209371042FEF209380
S1132D80060410924B04240F20934A049093720477
S1132D9090917204880F892B80937204809170043F
S1132DA0813061F410927004809172048093BB00AE
S1132DB08091BC0083FDF8CF85EC01C085EE809343
S1132DC0BC00809173048130E1F380914B0484173B
S1132DD010F440914B042CE434E0FB01D9018A2F18
S1132DE0821B841718F48D918193F9CF842F089551
S1132DF080E008950F93413208F04AC09091730423
S1132E009111FCCF32E030937304009371043FEFCF
S1132E103093060410924B0440934A04FB016CE483
S1132E2074E0DB013A2F361B341718F431913D93CB
S1132E30F9CF1092720430917204880F832B80931F
S1132E40720480917004813061F410927004809156
S1132E5072048093BB008091BC0083FDF8CF85ECA5
S1132E6001C085EE8093BC00222321F0809173047D
S1132E708230D1F3809106048F3F79F0809106046B
S1132E80803241F080910604803331F094E005C033
S1132E9091E003C092E001C093E0892F0F9108955F
S1132EA0613298F420917304243089F460932804E7
S1132EB0FC012AE234E0D9018A2F821B861718F418
S1132EC081918D93F9CF80E0089581E0089582E0A7
S1132ED0089585ED8093BC008091BC0084FDFCCFF7
S1132EE010927304089585EC8093BC0010927304CF
S1132EF008951F920F920FB60F9211242F933F93B0
S1132F004F935F936F937F938F939F93AF93BF93ED
S1132F10EF93FF938091B900887F803609F49EC0B7
S1132F2078F5883209F45DC090F4803109F456C014
S1132F3038F4882309F4F5C0883009F44FC0F5C08B
S1132F40883109F44EC0803209F45FC0EEC0803489
S1132F5009F46AC058F4803309F457C0883309F07F
S1132F60E4C0809306040E947317DFC0803509F41F
S1132F704FC0883509F45DC0883409F0D6C0D3C089
S1132F80883909F4C4C0A8F4883709F467C038F450
S1132F90883609F463C0803709F460C0C6C0883835
S1132FA009F4B5C0803909F45FC0803809F0BDC0A8
S1132FB05BC0803B09F483C038F4803A09F466C0EE
S1132FC0883A09F47CC0B1C0803C09F4A4C0883CB0
S1132FD009F4A1C0883B09F487C0A7C0809172049A
S1132FE010C090914B0480914A04981770F5E091B9
S1132FF04B0481E08E0F80934B04F0E0E45BFB4FC5
S113300080818093BB0085EC83C0809306048BC0D1
S1133010E0914B0481E08E0F80934B048091BB00C0
S1133020F0E0E45BFB4F808390914B0480914A0471
S11330306BC0E0914B0481E08E0F80934B04809130
S1133040BB00F0E0E45BFB4F80838091710481114D
S11330506AC081E08093700484EA5EC083E0809358
S1133060730410920704CFCF80910704803208F0D4
S11330704EC0E091070481E08E0F80930704809195
S1133080BB00F0E0E85FFB4F8083BDCF0E94731765
S113309080910704803230F4E0910704F0E0E85FA7
S11330A0FB4F10826091070470E0E0916C04F09192
S11330B06D0488E094E009951092070436C084E01A
S11330C0809373041092290410922804E0916E04F2
S11330D0F0916F04099580912804811105C081E065
S11330E08093280410922A04E091290481E08E0F31
S11330F080932904F0E0E65DFB4F80818093BB0060
S11331009091290480912804981708F47CCF85E8CD
S11331108093BC000AC085EC8093BC0010927304B9
S113312004C0109206040E946917FF91EF91BF91A9
S1133130AF919F918F917F916F915F914F913F914B
S11331402F910F900FBE0F901F9018950E948D0A1B
S1133150880B990B089597FB072E16F4009407D05B
S113316077FD09D00E94E11807FC05D03EF4909544
S113317081959F4F0895709561957F4F0895A1E2C1
S11331801A2EAA1BBB1BFD010DC0AA1FBB1FEE1FDD
S1133190FF1FA217B307E407F50720F0A21BB30B28
S11331A0E40BF50B661F771F881F991F1A9469F7A4
S11331B060957095809590959B01AC01BD01CF0100
S11331C00895AA1BBB1B51E107C0AA1FBB1FA6176A
S11331D0B70710F0A61BB70B881F991F5A95A9F7BC
S11331E080959095BC01CD010895EE0FFF1F0590C9
S11331F0F491E02D0994CF93DF938230910510F47C
S113320082E090E0E0917604F091770420E030E0F1
S1133210C0E0D0E0309711F140815181481759073F
S1133220C0F04817590761F482819381209719F0FF
S11332309B838A832BC0909377048093760426C063
S11332402115310519F04217530718F49A01BE01EC
S1133250DF01EF010280F381E02DDCCF2115310580
S113326009F1281B390B2430310590F412968D9105
S11332709C9113976115710521F0FB01938382835F
S113328004C09093770480937604FD01329644C081
S1133290FD01E20FF31F81939193225031092D9385
S11332A03C933AC02091740430917504232B41F46B
S11332B0209102013091030130937504209374042A
S11332C020910001309101012115310541F42DB700
S11332D03EB74091040150910501241B350BE09148
S11332E07404F0917504E217F307A0F42E1B3F0B4E
S11332F02817390778F0AC014E5F5F4F2417350764
S113330048F04E0F5F1F50937504409374048193EB
S1133310919302C0E0E0F0E0CF01DF91CF910895F6
S11333200F931F93CF93DF93009709F48CC0FC0194
S1133330329713821282009176041091770401155A
S1133340110581F420813181820F931F209174042F
S1133350309175042817390779F5F0937504E093D3
S1133360740471C0D80140E050E0AE17BF0750F4B8
S113337012962D913C911397AD012115310509F158
S1133380D901F3CF9D01DA013383228360817181F6
S1133390860F971F8217930769F4EC0128813981FE
S11333A0260F371F2E5F3F4F318320838A819B81F5
S11333B093838283452B29F4F0937704E093760476
S11333C042C01396FC93EE931297ED0149915991E3
S11333D09E01240F351FE217F30771F48081918158
S11333E0840F951F029611969C938E9382819381EC
S11333F013969C938E931297E0E0F0E0D801129616
S11334008D919C911397009719F0F8018C01F6CFD8
S11334108D919C9198012E5F3F4F820F931F2091B5
S11334207404309175042817390769F4309729F426
S1133430109277041092760402C0138212821093C1
S1133440750400937404DF91CF911F910F91089537
S1133450A0E0B0E0EEE2FAE10C94D11CEC0100979C
S113346021F4CB010E94FB18B8C0FC01E60FF71F42
S11334709C0122503109E217F30708F4ACC0D901CA
S11334800D911C91119706171707B0F0053011051F
S113349008F49FC0C80104978617970708F499C0D9
S11334A002501109061B170B019311936D937C9322
S11334B0CF010E9490198DC05B01A01AB10A4C0182
S11334C0800E911EA0917604B091770440E050E004
S11334D0E12CF12C109709F44AC0A815B905D1F5CF
S11334E06D907C901197630182E0C80ED11CCA14C0
S11334F0DB0480F1A3014A195B096A0182E0C80E6A
S1133500D11C1296BC9012971396AC91B5E0CB16D1
S1133510D10440F0B282A38351834083D9016D93D7
S11335207C930AC00E5F1F4FC301800F911FF901E6
S113353091838083EB2DFA2FE114F10431F0D7014C
S11335401396FC93EE93129744C0F0937704E093A0
S113355076043FC08D919C9111974817590708F440
S1133560AC017D0112960D90BC91A02DB3CF80913A
S113357074049091750488159905E1F4461757076A
S1133580C8F48091000190910101009741F48DB736
S11335909EB74091040150910501841B950BE817D7
S11335A0F907C8F4F0937504E0937404F901718386
S11335B060830FC0CB010E94FB187C01009759F077
S11335C0A801BE010E94041BCE010E949019C701EC
S11335D004C0CE0102C080E090E0CDB7DEB7EEE0DB
S11335E00C94ED1C662777270C944A1B91110C94BC
S11335F0A71C803219F089508550C8F708954CE211
S113360052E00E94231B0895FB01DC0102C00190DB
S11336100D9241505040D8F70895FB01DC01019010
S11336200D920020E1F70895FB01DC014150504068
S113363048F001900D920020C9F701C01D9241503D
S11336405040E0F70895FA01A191B081009719F470
S11336501097E1F0CD01DC01CD010D90002011F4B3
S1133660C00113C0FB012191222319F02015D9F7C1
S1133670F3CFFB012191201519F41E92119606C077
S11336802223C1F70D900020A1F7D001FA01A193E4
S1133690B0830895A0E0B0E0E0E5FBE10C94D11C18
S11336A0EC017B016115710519F0DB018D939C938D
S11336B08E010F5F1F4F7880872D90E00E94F61ACD
S11336C0892B11F0E801F4CFBDE27B1205C00F5F36
S11336D01F4F7980C1E008C0EBE27E1204C08E0166
S11336E00E5F1F4F7980C0E06801F1E0CF1AD10866
S11336F043E050E06EE970E0C6010E94AA1C892BE9
S1133700F1F4680122E0C20ED11C45E050E069E901
S113371070E0C6010E94AA1C892B21F4680187E08D
S1133720C80ED11CE114F10419F0D701CD92DC923A
S1133730C111FFC060E070E080E89FE703C143E08F
S113374050E066E970E0C6010E94AA1C892B51F47E
S1133750E114F10409F4F2C00E5F1F4FF701118365
S11337600083ECC0680160E070E0CB0100E010E091
S1133770F601D0EDD70DDA3058F52C2F2260622EE9
S11337802C2F2870C2FF05C0211128C00F5F1F4FC6
S113379025C0222311F001501109A5E0B0E09B01DE
S11337A0AC010E94C21C4B015C01880C991CAA1C30
S11337B0BB1CC501B4016D0F711D811D911D6839BC
S11337C0A9E97A078A07A9E19A0740F0C66005C00B
S11337D0DE3F51F4C3FD44C0C8606C2EBFEFCB1A6A
S11337E0DB0A7080C62DC4CF2D2F2F7D2531C1F566
S11337F040814D3211F4C06106C04B3221F0319644
S113380021E030E006C03296D60111964C9122E0B8
S113381030E0A0EDA40FAA3018F0E21BF30B20C097
S113382040E050E04038BCE05B075CF49A01220FB2
S1133830331F220F331F420F531F440F551F4A0FCC
S1133840511D3196DF0111972C91A0EDA20FAA30E2
S113385048F3C4FF03C0519541955109040F151F46
S1133860C1FF07C0E114F10421F03197D701ED93B2
S1133870FC930E94500AC370C33019F06B017C01A1
S113388006C06B017C01F7FAF094F7F8F09420E09D
S113389030E0A901C701B6010E94A309882309F4F5
S11338A045C017FF06C0119501951109C5EBD0E07D
S11338B002C0CDECD0E05E01B8E1AB1AB10846011C
S11338C0BE2DAF2D90E2E92EF12C0E151F0584F0CC
S11338D0FE012591359145915491B4018B2F9A2F76
S11338E00E94360B4B01B82FA92F0E191F09EDCFDB
S11338F02497F594E794CA15DB0539F76401EB2E98
S1133900FA2E8E2D880F8F2D881F8F3F49F020E0CF
S113391030E0A901C701B6010E94A309811106C0C4
S113392082E290E09093790480937804C701B60111
S113393009C060E070E080E89FEF04C060E070E0E0
S113394080EC9FE7CDB7DEB7EEE00C94ED1C992731
S113395088270895FB01DC014150504088F08D9187
S113396081341CF08B350CF4805E659161341CF05D
S11339706B350CF4605E861B611171F3990B08952D
S1133980881BFCCF0E94041DA59F900DB49F900D31
S1133990A49F800D911D112408952F923F924F9260
S11339A05F926F927F928F929F92AF92BF92CF92CB
S11339B0DF92EF92FF920F931F93CF93DF93CDB7D4
S11339C0DEB7CA1BDB0B0FB6F894DEBF0FBECDBF4C
S11339D009942A88398848885F846E847D848C841D
S11339E09B84AA84B984C884DF80EE80FD800C8126
S11339F01B81AA81B981CE0FD11D0FB6F894DEBF09
S1133A000FBECDBFED010895A29FB001B39FC001C9
S1133A10A39F700D811D1124911DB29F700D811DF6
S1133A201124911D089510E0C4E9D0E004C0FE0102
S1133A300E94F5182196C539D107C9F7F894FFCF2C
S1133A4000007A04200010000F00020006000C00A1
S1133A500E00040005000A00090003000B000B001F
S1133A600600050003000200040009000F000E0018
S1133A700A0010000C0064005D00140078000000CF
S1133A807544008089442D2D2D2D2D2D2D2D2D2D6A
S1133A902D2D2D2D2D2D2D2D2D2D2D2D2D2D2D2D52
S1133AA02D2D2D2D2D2D2D2D2D2D0053656E736F48
S1133AB0723A20202020202020004472697665720A
S1133AC0205665723A20202000556E697175652074
S1133AD049443A20202020004D61782056616C75BD
S1133AE0653A2020202000207554004D696E205630
S1133AF0616C75653A20202020005265736F6C75E7
S1133B0074696F6E3A202020004C462000205246F3
S1133B102000204C42200020524220000A0D007355
S1133B20746172740000000000810CCC0D020C1C46
S1133B300C0E0C5F0C0D0A006E616E00696E66005F
S1133B406F7666002E00484D433538383300000048
S1133B50000044129212BF00261345120000000018
S10F3B60B81588155C15641578158715D8
S9030000FC
