S0230000416363656C65726F6D65746572416E644779726F2D4B616C6D616E2E7372656391
S11300000C9477000C949F000C949F000C949F0018
S11300100C949F000C949F000C949F000C949F00E0
S11300200C949F000C949F000C949F000C949F00D0
S11300300C949F000C949F000C949F000C949F00C0
S11300400C9404100C949F000C94730D0C94A50D47
S11300500C949F000C949F000C949F000C949F00A0
S11300600C94AD170C949F00084AD73B3BCE016E0D
S113007084BCBFFDC12F3D6C74319ABD56833DDAFB
S11300803D00C77F11BED9E4BB4C3E916BAAAABE0A
S1130090000000803F00000000080002010000038F
S11300A00407000000000000000001020408102002
S11300B040800102040810200102040810200404F6
S11300C004040404040402020202020203030303FC
S11300D0030300000000250028002B00000000009E
S11300E0240027002A00FD01D50DC1161902112490
S11300F01FBECFEFD8E0DEBFCDBF12E0A0E0B1E07D
S1130100E2E1F7E302C005900D92AE32B107D9F7F0
S113011024E0AEE2B2E001C01D92A734B207E1F7D9
S113012010E0C6E7D0E004C02197FE010E9429191F
S1130130C337D107C9F70E94030E0C947C1B0C949F
S113014000000895DC01ED91FC910190F081E02D17
S1130150099461E080911C010E94721161E0809118
S11301601A010E94721161E0809118010E947211BB
S113017061E0809116010E94721161E08091140186
S11301800E94721161E0809112010E94721161E07B
S1130190809110010E94721161E080910E010E9411
S11301A0721161E080910C010E94721161E08091F2
S11301B00A010E94721161E0809108010E9472118B
S11301C061E0809106010C94721161E080911C0140
S11301D00E94AE1160E080911A010E94AE1161E0AC
S11301E0809116010E94AE1160E0809114010E947A
S11301F0AE1161E0809110010E94AE1160E0809127
S11302000E010E94AE1161E080910A010E94AE11BC
S113021060E0809108010C94AE1160E080911C01B3
S11302200E94AE1161E080911A010E94AE1160E05B
S1130230809110010E94AE1161E080910E010E9434
S1130240AE1160E0809116010E94AE1161E08091D0
S113025014010E94AE1160E080910A010E94AE1167
S113026061E0809108010C94AE1160E080911C0162
S11302700E94AE1161E080911A010E94AE1161E00A
S1130280809116010E94AE1160E0809114010E94D9
S1130290AE1161E0809110010E94AE1160E0809186
S11302A00E010E94AE1160E080910A010E94AE111D
S11302B061E0809108010C94AE1161E080911C0111
S11302C00E94AE1160E080911A010E94AE1160E0BC
S11302D0809116010E94AE1161E0809114010E9488
S11302E0AE1160E0809110010E94AE1161E0809136
S11302F00E010E94AE1161E080910A010E94AE11CC
S113030060E0809108010C94AE1160E080911C01C2
S11303100E94AE1161E080911A010E94AE1160E06A
S1130320809110010E94AE1161E080910E010E9443
S1130330AE1161E0809116010E94AE1160E08091DF
S113034014010E94AE1161E080910A010E94AE1175
S113035060E0809108010C94AE1161E080911C0171
S11303600E94AE1160E080911A010E94AE1161E01A
S1130370809110010E94AE1160E080910E010E94F4
S1130380AE1160E0809116010E94AE1161E080918F
S113039014010E94AE1160E080910A010E94AE1126
S11303A061E0809108010C94AE1161E080911C0120
S11303B00E94AE1161E080911A010E94AE1161E0C9
S11303C0809110010E94AE1161E080910E010E94A3
S11303D0AE1161E0809116010E94AE1161E080913E
S11303E014010E94AE1161E080910A010E94AE11D5
S11303F061E0809108010C94AE1149E350E360E0A0
S113040070E085EC92E00E94C81287E992E00E94B5
S1130410D9138FE692E00E94D91368EF71E085E367
S113042092E00E944C1263EB71E08EE292E00C9435
S11304304C128EE292E00E94DE1185E392E00C946D
S1130440DE11CF93DF9360E470E083E893E00E94D1
S11304503F1660E170E083E893E00E94A20066EB3F
S113046070E083E893E00E94A20083E893E00E9496
S1130470BE166AE070E080E090E00E94731060E4D1
S113048070E083E893E00E943F166DE070E083E83B
S113049093E00E94A20060E170E083E893E00E9490
S11304A0A20083E893E00E94BE1660E470E083E853
S11304B093E00E943F1660E270E083E893E00E94BC
S11304C0A20083E893E00E94BE1641E050E060E49D
S11304D070E083E893E00E94BB1683E893E00E94F7
S11304E09815EC0160E470E083E893E00E943F1605
S11304F060E270E083E893E00E94A200BE016F70A6
S1130500772783E893E00E94A20083E893E00E94A7
S1130510BE1660E470E083E893E00E943F1665E352
S113052070E083E893E00E94A20083E893E00E94D5
S1130530BE1641E050E060E470E083E893E00E947E
S1130540BB1683E893E00E949815EC0160E470E028
S113055083E893E00E943F1665E370E083E893E04C
S11305600E94A200BE01617F7727646083E893E064
S11305700E94A20083E893E00E94BE1660E470E04B
S113058083E893E00E943F1660E370E083E893E021
S11305900E94A20083E893E0DF91CF910C94BE16F1
S11305A0CF93DF9360E470E083E893E00E943F160A
S11305B062E070E083E893E00E94A20083E893E0A5
S11305C00E94BE1646E050E060E470E083E893E0E9
S11305D00E94BB1683E893E00E949815EC0183E81F
S11305E093E00E94981560E070E0782F6C0F7D1FF7
S11305F0072E000C880B990B0E94980A60936B02DB
S113060070936C0280936D0290936E0283E893E082
S11306100E949815EC0183E893E00E94981560E02D
S113062070E0782F6C0F7D1F072E000C880B990B40
S11306300E94980A6093670270936802809369022B
S113064090936A0283E893E00E949815EC0183E892
S113065093E00E94981560E070E0782F6C0F7D1F86
S1130660072E000C880B990B0E94980A6093630272
S1130670709364028093650290936602DF91CF9138
S113068008951F93CF93DF931F92CDB7DEB7162F34
S1130690BC0183E893E049830E943F16612F83E8FD
S11306A093E00E94EC154981642F83E893E00E9453
S11306B0EC1583E893E00F90DF91CF911F910C9498
S11306C0BE1640E06EE388E690E00E94410347E0F6
S11306D065E188E690E00E9441034EE166E188E628
S11306E090E00E94410340E067E188E690E00C94CA
S11306F0410367EF71E08EE292E00E94611226E00E
S113070040E052EC61E070E08DED92E00E940E0D4D
S113071083E893E00E942B160E94A9000E94210204
S11307200E94610368EC70E085E392E00E940F127E
S11307300E944E106093BF027093C0028093C10266
S11307409093C2020895EF92FF920F931F93CF9359
S1130750DF9300D000D0CDB7DEB77C01162FBC01EB
S113076083E893E02B833C8349835A830E943F169A
S1130770612F83E893E00E94EC1583E893E00E94E4
S1130780BE16B70183E893E00E943F1649815A815F
S1130790B70183E893E00E94BB162B81022F3C81B2
S11307A0132F83E893E00E949015892B41F083E88E
S11307B093E00E949815F80181938F01F2CF83E8AA
S11307C093E00F900F900F900F90DF91CF911F91B6
S11307D00F91FF90EF900C94BE160F931F93CF933D
S11307E0DF93CDB7DEB728970FB6F894DEBF0FBE00
S11307F0CDBF8C019E012F5F3F4F48E050E06BE17D
S113080088E690E00E94A3038B8190E0982F8827CC
S11308102C81822B2091260130912701820F931F76
S1130820F801918380838D8190E0982F88272E8111
S1130830822B2091240130912501820F931F9383F1
S113084082832F8130E0322F22278885282B8091C4
S1130850220190912301280F391F35832483298194
S113086030E0322F22278A81282B3783268328964B
S11308700FB6F894DEBF0FBECDBFDF91CF911F91AD
S11308800F910895CF93DF93CDB7DEB728970FB6B6
S1130890F894DEBF0FBECDBFCE0101960E94ED03DA
S11308A069817A81072E000C880B990B0E94980AA3
S11308B020E030E046E651E40E94EE0960935F02D6
S11308C07093600280936102909362026B817C81D9
S11308D0072E000C880B990B0E94980A20E030E048
S11308E046E651E40E94EE0960935B0270935C0259
S11308F080935D0290935E026D817E81072E000CD1
S1130900880B990B0E94980A20E030E046E651E4F7
S11309100E94EE0960935702709358028093590223
S113092090935A026F81788560577C4C072E000C97
S1130930880B990B0E94980A20E030E04CE853E4BD
S11309400E94EE0920E030E04CE052E40E940B09E2
S11309500E94600A7093C4026093C30228960FB683
S1130960F894DEBF0FBECDBFDF91CF9108954F92B3
S11309705F926F927F928F929F92AF92BF92CF922B
S1130980DF92EF92FF920F931F93CF93DF93CDB734
S1130990DEB7E8970FB6F894DEBF0FBECDBF0E9456
S11309A0D0020E9442040E944E10C090BF02D09018
S11309B0C002E090C102F090C2026C197D098E0958
S11309C09F090E94960A20E034E244E759E40E9419
S11309D0EE0969A77AA78BA79CA70E944E10609383
S11309E0BF027093C0028093C1029093C202C09070
S11309F06302D0906402E0906502F09066028090F9
S1130A00670290906802A0906902B0906A02A70100
S1130A109601C501B4010E948A0921EE3EE245E631
S1130A2052E40E947C0B2B013C01A5019401C501F9
S1130A30B4010E947C0B4B015C01A7019601C70124
S1130A40B6010E947C0B9B01AC01C501B4010E945C
S1130A500B090E94EF0B9B01AC0180916B029091FA
S1130A606C02A0916D02B0916E02BC01CD01905850
S1130A700E94EE090E94BA0921EE3EE245E652E4E4
S1130A800E947C0B69AB7AAB8BAB9CAB20E030E073
S1130A9043E053E460915F027091600280916102CF
S1130AA0909162020E94EE096DA37EA38FA398A782
S1130AB020E030E043E053E460915B0270915C021B
S1130AC080915D0290915E020E94EE094B015C01EF
S1130AD020E030E044EB52ECC301B2010E94E9098A
S1130AE087FF10C020E030E044EB52E46091430201
S1130AF07091440280914502909146020E946F0BCE
S1130B001816D4F020E030E044EB52E4C301B20103
S1130B100E946F0B18167CF520E030E044EB52EC99
S1130B206091430270914402809145029091460283
S1130B300E94E90987FF1FC0B301A20187E992E07F
S1130B400E948A1540924B0250924C0260924D02D0
S1130B5070924E02409243025092440260924502C7
S1130B60709246024092530250925402609255028F
S1130B707092560216C0C9A4DAA4EBA4FCA40DA179
S1130B801EA12FA138A5B301A20187E992E00E941A
S1130B900B14609343027093440280934502909334
S1130BA04602C0904302D0904402E0904502F09087
S1130BB0460220E030E0A901C701B6010E946F0B94
S1130BC018165CF420E030E044EB52E4C701B601AF
S1130BD00E946F0B18165CF00EC020E030E044EB6E
S1130BE052ECC701B6010E94E90987FF04C0B7FAB5
S1130BF0B094B7F8B094C9A4DAA4EBA4FCA495010A
S1130C00840149A95AA96BA97CA98FE692E00E94A4
S1130C100B146DAB7EAB8FAB98AF60933F027093B8
S1130C204002809341029093420229A53AA54BA524
S1130C305CA56DA17EA18FA198A50E947C0B6DA7D8
S1130C407EA78FA798AB2091530230915402409114
S1130C505502509156020E940B096DA37EA38FA3E7
S1130C6098A7609353027093540280935502909313
S1130C70560229A53AA54BA55CA5C501B4010E945D
S1130C807C0B6B017C0120914F023091500240910A
S1130C905102509152020E940B094B015C01609376
S1130CA04F0270935002809351029093520220910C
S1130CB04B0230914C0240914D0250914E026DA571
S1130CC07EA58FA598A90E940B092BE734E14EE677
S1130CD05FE30E947C0B6DA77EA78FA798AB29E2E8
S1130CE03CE54FE85DE3C301B2010E947C0B9B012C
S1130CF0AC016DA57EA58FA598A90E940B096093F0
S1130D004B0270934C0280934D0290934E022091BB
S1130D104702309148024091490250914A02C7016A
S1130D20B6010E940B092BE734E14EE65FE30E9413
S1130D307C0B6B017C0129E23CE54FE85DE369A98A
S1130D407AA98BA99CA90E947C0B9B01AC01C701C9
S1130D50B6010E940B096093470270934802809386
S1130D60490290934A0220E030E044E353EC6DA141
S1130D707EA18FA198A50E94E90987FD0CC020E0FF
S1130D8030E044E353E46DA17EA18FA198A50E94B5
S1130D906F0B181684F48091430290914402A09141
S1130DA04502B09146028093530290935402A0935B
S1130DB05502B093560220E030E044E353ECC50101
S1130DC0B4010E94E90987FD0AC020E030E044E351
S1130DD053E4C501B4010E946F0B181664F48DA985
S1130DE09EA9AFA9B8AD80934F0290935002A093EF
S1130DF05102B0935202BE016F5F7F4F85EC92E0C7
S1130E000E945A132D893E894F89588D698D7A8D98
S1130E108B8D9C8D0E948A092EEA37E441E65EE3BD
S1130E200E940B096B017C0120E030E0A9010E94C3
S1130E30E90987FF0AC02BED3FE049EC50E4C70104
S1130E40B6010E940B096B017C012BED3FE049ECDC
S1130E5050E4C701B6010E946F0B181654F42BED31
S1130E603FE049EC50E4C701B6010E940A096B0156
S1130E707C0120E030E044E353E4C701B6010E9462
S1130E807C0B2BED3FE049E450E40E94EE096093B3
S1130E903B0270933C0280933D0290933E0220E01B
S1130EA030E040E858E360916B0270916C028091ED
S1130EB06D0290916E020E947C0B2AE038EE4CE1A8
S1130EC051E40E947C0BAB01BC0122E030E08DEDCB
S1130ED092E00E94021064EE71E08DED92E00E94B7
S1130EE0600E20E030E040E858E3609167027091C2
S1130EF068028091690290916A020E947C0B2AE048
S1130F0038EE4CE151E40E947C0BAB01BC0122E0C1
S1130F1030E08DED92E00E94021064EE71E08DED00
S1130F2092E00E94600E20E030E040E858E36091D7
S1130F3063027091640280916502909166020E943E
S1130F407C0B2AE038EE4CE151E40E947C0BAB01AF
S1130F50BC0122E030E08DED92E00E94021064EECC
S1130F6071E08DED92E00E94600E40915F0250911D
S1130F706002609161027091620222E030E08DEDC6
S1130F8092E00E94021064EE71E08DED92E00E9406
S1130F90600E40915B0250915C0260915D02709121
S1130FA05E0222E030E08DED92E00E94021064EED9
S1130FB071E08DED92E00E94600E409157025091D5
S1130FC058026091590270915A0222E030E08DED8E
S1130FD092E00E94021064EE71E08DED92E00E94B6
S1130FE0600E4D895E896F89788D22E030E08DED49
S1130FF092E00E94021064EE71E08DED92E00E9496
S1131000600E498D5A8D6B8D7C8D22E030E08DED24
S113101092E00E94021064EE71E08DED92E00E9475
S1131020600E40913B0250913C0260913D027091F0
S11310303E0222E030E08DED92E00E94021064EE68
S113104071E08DED92E00E94600E22E030E049A54F
S11310505AA56BA57CA58DED92E00E9402106EE26C
S113106072E08DED92E00E94520E60911E0170912B
S11310701F01809118010E94EA1060911E01709175
S11310801F01809112010E94EA1060911E0170916B
S11310901F0180910C010E94EA1060911E01709161
S11310A01F01809106010E94EA1060912001709155
S11310B02101072E000C880B990B0E947310E896EF
S11310C00FB6F894DEBF0FBECDBFDF91CF911F9155
S11310D00F91FF90EF90DF90CF90BF90AF909F90D3
S11310E08F907F906F905F904F9008950F931F9310
S11310F0CF93DF938C01C0E0D0E060912001709128
S11311002101C8010E94DF18C617D70724F40E94E2
S1131110B7042196F2CFDF91CF911F910F910895DB
S11311208AE090E00E9476088AE090E090932101A2
S1131130809320018DED92E00E94480C1816190648
S11311400CF04FC08DED92E00E94620C873749F499
S11311508FEF90E090931F0180931E010E94E500A1
S113116036C0813649F48FEF90E090931F0180934D
S11311701E010E9435012BC0833749F48FEF90E0A4
S113118090931F0180931E010E940D0120C084369C
S113119049F48FEF90E090931F0180931E010E9409
S11311A05D0115C0813749F48FEF90E090931F01E2
S11311B080931E010E9485010AC0853691F48FEF49
S11311C090E090931F0180931E010E94AD0184E67C
S11311D090E00E94760810921F0110921E010E9456
S11311E0D501809134028823A1F066EB71E08DED86
S11311F092E00E94600E65E372E08DED92E00E9441
S11312006D0E68EF71E085E392E00E946112109226
S1131210340208955058BB27AA270E9422090C942F
S1131220350B0E94270B38F00E942E0B20F039F466
S11312309F3F19F426F40C94FD0A0EF4E095E7FBA5
S11312400C94F70AE92F0E94460B58F3BA17620769
S113125073078407950720F079F4A6F50C94680BBE
S11312600EF4E0950B2EBA2FA02D0B01B9019001BD
S11312700C01CA01A0011124FF27591B99F0593F01
S113128050F4503E68F11A16F040A22F232F342F49
S11312904427585FF3CF469537952795A795F04097
S11312A05395C9F77EF41F16BA0B620B730B840BAC
S11312B0BAF09150A1F0FF0FBB1F661F771F881F64
S11312C0C2F70EC0BA0F621F731F841F48F48795BC
S11312D077956795B795F7959E3F08F0B0CF9395AE
S11312E0880F08F09927EE0F9795879508950E9427
S11312F0270B60F080E891E009F49EEF0E942E0B2A
S113130028F040E851E071F45EEF0CC00C94FD0A43
S11313100C94680BE92FE0780E94460B40F3092EE9
S1131320052AB1F3261737074807590738F00E2E58
S113133007F8E02569F0E025E0640AC0EF6307F8E8
S1131340009407FADB01B9019D01DC01CA01AD017A
S1131350EF930E94050A0E94350B0E94BA095F911F
S1131360552339F02BED3FE049E450FD49EC0C9452
S11313700B090895DF93DD27B92FBF7740E85FE3BA
S11313801616170648075B0718F4D92F0E94740B2A
S11313909F938F937F936F930E942F0CE8E6F0E066
S11313A00E94000B0E94350B2F913F914F915F914A
S11313B00E948F0BDD2351F09058A2EA2AED3FE002
S11313C049EC5FE3D0785D270E942209DF910C94F9
S11313D0350B0E94D30A08F481E008950E94020AA2
S11313E00C94350B0E942E0B58F00E94270B40F0F2
S11313F029F45F3F29F00C94F70A51110C94690BFE
S11314000C94FD0A0E94460B68F39923B1F355230B
S113141091F3951B550BBB27AA2762177307840703
S113142038F09F5F5F4F220F331F441FAA1FA9F399
S113143035D00E2E3AF0E0E832D091505040E69587
S1131440001CCAF72BD0FE2F29D0660F771F881FE8
S1131450BB1F261737074807AB07B0E809F0BB0BDB
S1131460802DBF01FF2793585F4F3AF09E3F5105EF
S113147078F00C94F70A0C94690B5F3FE4F3983E00
S1131480D4F3869577956795B795F7959F5FC9F7D8
S1131490880F911D9695879597F90895E1E0660F59
S11314A0771F881FBB1F621773078407BA0720F0D2
S11314B0621B730B840BBA0BEE1F88F7E09508953B
S11314C00E94670A6894B1110C94690B08950E94F4
S11314D04E0B88F09F5798F0B92F9927B751B0F069
S11314E0E1F0660F771F881F991F1AF0BA95C9F7A4
S11314F014C0B13091F00E94680BB1E008950C94CF
S1131500680B672F782F8827B85F39F0B93FCCF381
S1131510869577956795B395D9F73EF49095809520
S1131520709561957F4F8F4F9F4F0895E89409C040
S113153097FB3EF490958095709561957F4F8F4F02
S11315409F4F9923A9F0F92F96E9BB279395F69518
S1131550879577956795B795F111F8CFFAF4BB0F96
S113156011F460FF1BC06F5F7F4F8F4F9F4F16C0FA
S1131570882311F096E911C0772321F09EE8872F84
S1131580762F05C0662371F096E8862F70E060E040
S11315902AF09A95660F771F881FDAF7880F9695B9
S11315A0879597F90895990F0008550FAA0BE0E85D
S11315B0FEEF16161706E807F907C0F01216130611
S11315C0E407F50798F0621B730B840B950B39F451
S11315D00A2661F0232B242B252B21F408950A26B7
S11315E009F4A140A6958FEF811D811D089597F9F7
S11315F09F6780E870E060E008959FEF80EC0895B5
S1131600DF93CF931F930F93FF92EF92DF927B01AF
S11316108C01689406C0DA2EEF010E948F0BFE0144
S1131620E894A5912591359145915591A6F3EF0143
S11316300E942209FE019701A801DA9469F7DF905C
S1131640EF90FF900F911F91CF91DF9108950024A7
S11316500A941616170618060906089500240A9413
S113166012161306140605060895092E0394000C99
S113167011F4882352F0BB0F40F4BF2B11F460FF28
S113168004C06F5F7F4F8F4F9F4F089557FD905851
S1131690440F551F59F05F3F71F04795880F97FB32
S11316A0991F61F09F3F79F08795089512161306EC
S11316B01406551FF2CF4695F1DF08C0161617061B
S11316C01806991FF1CF8695710561050894089550
S11316D0E894BB2766277727CB0197F908950E94E2
S11316E0D30A08F48FEF08959B01AC0160E070E029
S11316F080E89FE30C94EE090E948F0B0C94350B49
S11317000E94270B38F00E942E0B20F0952311F035
S11317100C94F70A0C94FD0A11240C94690B0E9492
S1131720460B70F3959FC1F3950F50E0551F629FD0
S1131730F001729FBB27F00DB11D639FAA27F00D26
S1131740B11DAA1F649F6627B00DA11D661F829F4D
S11317502227B00DA11D621F739FB00DA11D621F32
S1131760839FA00D611D221F749F3327A00D611D4F
S1131770231F849F600D211D822F762F6A2F112431
S11317809F5750409AF0F1F088234AF0EE0FFF1F64
S1131790BB1F661F771F881F91505040A9F79E3FBB
S11317A0510580F00C94F70A0C94690B5F3FE4F345
S11317B0983ED4F3869577956795B795F795E79511
S11317C09F5FC1F7FE2B880F911D9695879597F91A
S11317D0089519F416F40C94FD0A0C94330C0E9429
S11317E04E0BB8F39923C9F3B6F39F57550B87FFF4
S11317F00E94410C0024A0E640EA900180585695CE
S1131800979528F4805C660F771F881F20F02617B1
S11318103707480730F4621B730B840B20293129E6
S11318204A2BA69517940794202531254A2758F763
S1131830660F771F881F20F026173707480730F4F4
S1131840620B730B840B200D311D411DA09581F794
S1131850B901842F9158880F9695879508959B0117
S1131860AC010C947C0B9F3F31F0915020F4879590
S113187077956795B795880F911D9695879597F9F4
S1131880089591505040660F771F881FD2F708952E
S1131890FC01918D228D892F90E0805C9F4F821BEB
S11318A091098F7399270895FC01918D828D981762
S11318B031F0828DE80FF11D858D90E008958FEF52
S11318C09FEF0895FC01918D828D981761F0828DB0
S11318D0DF01A80FB11D5D968C91928D9F5F9F7360
S11318E0928F90E008958FEF9FEF08958BEC9DE029
S11318F0892B49F080E090E0892B29F00E94CB0DE0
S113190081110C9400000895FC01848DDF01A80F5F
S1131910B11DA35ABF4F2C91848D90E001968F7313
S11319209927848FA689B7892C93A089B1898C9132
S113193080648C93938D848D981306C00288F389F8
S1131940E02D80818F7D80830895CF93DF93EC0118
S1131950888D8823C9F0EA89FB89808185FD05C0CB
S1131960A889B9898C9186FD0FC00FB607FCF5CF05
S1131970808185FFF2CFA889B9898C9185FFEDCF4D
S1131980CE010E94840CE7CFDF91CF910895EF92AE
S1131990FF920F931F93CF93DF93EC0181E0888F25
S11319A09B8D8C8D981305C0E889F989808185FD0C
S11319B024C0F62E0B8D10E00F5F1F4F0F731127FD
S11319C0E02E8C8DE8120CC00FB607FCFACFE88924
S11319D0F989808185FFF5CFCE010E94840CF1CF77
S11319E08B8DFE01E80FF11DE35AFF4FF0820B8F40
S11319F0EA89FB898081806207C0EE89FF89608360
S1131A00E889F98980818064808381E090E0DF91B6
S1131A10CF911F910F91FF90EF900895CF92DF9295
S1131A20EF92FF921F93CF93DF93EC016A017B0146
S1131A30122FE889F98982E080834115514E6105AE
S1131A407105B1F060E079E08DE390E0A7019601C3
S1131A500E94F318DA01C9010197A109B109B695E9
S1131A60A79597958795AC01411580E15807A8F093
S1131A70E889F989108260E874E88EE190E0A701B2
S1131A8096010E94F318BA01A90141505109610954
S1131A9071097695679557954795EC85FD85508333
S1131AA0EE85FF854083188EEC89FD891083EA89D1
S1131AB0FB89808180618083EA89FB8980818860D9
S1131AC08083EA89FB89808180688083EA89FB8935
S1131AD080818F7D8083DF91CF911F91FF90EF9064
S1131AE0DF90CF9008951F920F920FB60F9211249A
S1131AF02F938F939F93EF93FF93E091ED02F091D7
S1131B00EE028081E091F302F091F40282FD12C0B2
S1131B1090818091F6028F5F8F732091F702821774
S1131B2051F0E091F602F0E0E352FD4F958F80937F
S1131B30F60201C08081FF91EF919F918F912F91C7
S1131B400F900FBE0F901F9018951F920F920FB613
S1131B500F9211242F933F934F935F936F937F932F
S1131B608F939F93AF93BF93EF93FF938DED92E089
S1131B700E94840CFF91EF91BF91AF919F918F913F
S1131B807F916F915F914F913F912F910F900FBE75
S1131B900F901F9018958DED92E00E94480C21E063
S1131BA0892B09F420E0822F0895EDEDF2E01382F1
S1131BB0128288EE93E0A0E0B0E084839583A6834C
S1131BC0B7838AEE91E09183808385EC90E09587DA
S1131BD0848784EC90E09787868780EC90E0918BF3
S1131BE0808B81EC90E0938B828B82EC90E0958BE0
S1131BF0848B86EC90E0978B868B118E128E138EDD
S1131C00148E089508950E94AF100E94020E0E943F
S1131C107903C6E7DCE00E9490082097E1F30E9474
S1131C20760CF9CFCF92DF92EF92FF920F931F932E
S1131C30CF93DF936C017A018B01C0E0D0E0CE1525
S1131C40DF0589F0D8016D918D01D601ED91FC91EC
S1131C500190F081E02DC6010995892B11F47E01D4
S1131C6002C02196ECCFC701DF91CF911F910F9154
S1131C70FF90EF90DF90CF9008956115710579F092
S1131C80FB0101900020E9F73197AF01461B570B88
S1131C90DC01ED91FC910280F381E02D099480E058
S1131CA090E00895DC01ED91FC91DB0114964D91D7
S1131CB05C9115976D917C910280F381E02D0994DC
S1131CC00C943D0EDC01ED91FC910190F081E02D2E
S1131CD0099466EF71E00C943D0E0F931F93CF931C
S1131CE0DF93EC010E94520E8C01CE010E94690E1A
S1131CF0800F911FDF91CF911F910F9108958F92C3
S1131D009F92AF92BF92CF92DF92EF92FF920F9386
S1131D101F93CF93DF93CDB7DEB7A1970FB6F89497
S1131D20DEBF0FBECDBF7C01D42EC52EDB0119A2B0
S1131D30223008F42AE08E010F5D1F4F822E912C71
S1131D40A12CB12C6D2D7C2DCD01A50194010E94F7
S1131D50F318D22EC32EDA01015011096A3071052D
S1131D608105910510F4605D01C0695CF801608330
S1131D70232B242B252B31F7B801C7010E943D0EDC
S1131D80A1960FB6F894DEBF0FBECDBFDF91CF9101
S1131D901F910F91FF90EF90DF90CF90BF90AF9085
S1131DA09F908F900895CF92DF92EF92FF920F93BE
S1131DB01F93CF93DF93EC016A017B012115310559
S1131DC079F4E881F9810190F081E02D642FDF91AD
S1131DD0CF911F910F91FF90EF90DF90CF900994D6
S1131DE02A303105E9F477FF1AC06DE20E94620ED1
S1131DF08C0144275527BA014C195D096E097F09E6
S1131E002AE0CE010E947F0E800F911FDF91CF91B7
S1131E101F910F91FF90EF90DF90CF9008952AE0EB
S1131E20B701A601CE01DF91CF911F910F91FF90D1
S1131E30EF90DF90CF900C947F0E4F925F926F9251
S1131E407F928F929F92AF92BF92CF92DF92EF9246
S1131E50FF92CF93DF93EC016A017B01B22E9A01CA
S1131E60AB01C701B6010E94DA18882319F069EFA3
S1131E7071E027C026013701E89477F82FEF3FEF90
S1131E804FE75FE7C301B2010E94DA1881110DC068
S1131E902FEF3FEF4FE75FE7C301B2010E94E9096B
S1131EA018161CF46DEF71E00CC02FEF3FEF4FE7F5
S1131EB05FE4C701B6010E946F0B18169CF461E041
S1131EC072E0CE01DF91CF91FF90EF90DF90CF9041
S1131ED0BF90AF909F908F907F906F905F904F9046
S1131EE00C943D0E2FEF3FEF4FE75FECC701B601B7
S1131EF00E94E90987FDE3CF20E030E0A901C70192
S1131F00B6010E94E90987FF0AC06DE2CE010E9472
S1131F10620E4C01F7FAF094F7F8F09402C0812CA9
S1131F20912CA12C60E070E080E09FE3AB1441F0C1
S1131F3020E030E040E251E40E94EE09A394F6CFA1
S1131F409B01AC01C701B6010E940B092B013C01A6
S1131F500E94670A6B017C010E94960A9B01AC01F6
S1131F60C301B2010E940A092B013C012AE0B70116
S1131F70A601CE010E947F0E7C01E80CF91CBB2057
S1131F8039F065E072E0CE010E943D0EE80EF91EC4
S1131F90DB2CDD2039F120E030E040E251E4C301E4
S1131FA0B2010E947C0B2B013C010E94600A4B0190
S1131FB0770FAA08BB082AE030E0B501A401CE01DE
S1131FC00E94D30EE80EF91EC501B4010E94980ABE
S1131FD09B01AC01C301B2010E940A092B013C011F
S1131FE0DA94D7CFC701DF91CF91FF90EF90DF90C4
S1131FF0CF90BF90AF909F908F907F906F905F90A5
S11320004F9008950C941D0F1F920F920FB60F92CC
S113201011242F933F938F939F93AF93BF938091FA
S11320207B0390917C03A0917D03B0917E0330915A
S11320307A0323E0230F2D3720F40196A11DB11D4F
S113204005C026E8230F0296A11DB11D20937A0333
S113205080937B0390937C03A0937D03B0937E03D2
S113206080917F0390918003A0918103B0918203BA
S11320700196A11DB11D80937F0390938003A093CB
S11320808103B0938203BF91AF919F918F913F9150
S11320902F910F900FBE0F901F9018953FB7F89493
S11320A080917F0390918003A0918103B09182037A
S11320B026B5A89B05C02F3F19F00196A11DB11D9F
S11320C03FBFBA2FA92F982F8827820F911DA11DDA
S11320D0B11DBC01CD0142E0660F771F881F991F17
S11320E04A95D1F708958F929F92AF92BF92CF9263
S11320F0DF92EF92FF926B017C010E944E104B0124
S11321005C01C114D104E104F10401F10E94C5167B
S11321100E944E10DC01CB0188199909AA09BB0958
S1132120883E9340A105B10560F321E0C21AD108AD
S1132130E108F10888EE880E83E0981EA11CB11C0A
S1132140C114D104E104F10419F7DBCFFF90EF903F
S1132150DF90CF90BF90AF909F908F900895789428
S113216084B5826084BD84B5816084BD85B5826098
S113217085BD85B5816085BDEEE6F0E08081816036
S11321808083E1E8F0E01082808182608083808136
S113219081608083E0E8F0E0808181608083E1EB0E
S11321A0F0E0808184608083E0EBF0E080818160F6
S11321B08083EAE7F0E080818460808380818260AC
S11321C08083808181608083808180688083109295
S11321D0C10008951F93CF93DF93182FEB0161E0A3
S11321E00E947211209711F460E004C0CF3FD10522
S11321F039F461E0812FDF91CF911F910C94AE11DE
S1132200E12FF0E0EA56FF4FE491E330F9F048F4AF
S1132210E130B9F0E230A1F584B5806284BDC8BD77
S113222034C0E730E9F0E83019F1E43049F5809141
S11322308000806280938000D0938B00C0938A00DA
S113224024C084B5806884BDC7BD1FC08091800050
S1132250806880938000D0938900C093880015C063
S11322608091B00080688093B000C093B3000DC02B
S11322708091B00080628093B000C093B40005C028
S1132280C038D1050CF0B5CFAFCFDF91CF911F91FE
S11322900895833081F028F4813099F08230A1F0E0
S11322A008958730A9F08830B9F08430D1F4809152
S11322B080008F7D03C0809180008F7780938000A1
S11322C0089584B58F7702C084B58F7D84BD089549
S11322D08091B0008F7703C08091B0008F7D809390
S11322E0B0000895CF93DF9390E0FC01E655FF4FD3
S11322F02491FC01E254FF4F8491882361F190E022
S1132300880F991FFC01E452FF4FC591D491FC0141
S1132310EE52FF4FA591B491611109C09FB7F89493
S11323208881209582238883EC912E230BC0623010
S113233061F49FB7F8943881822F80958323888332
S1132340EC912E2B2C939FBF06C08FB7F894E88195
S11323502E2B28838FBFDF91CF9108951F93CF93A6
S1132360DF93282F30E0F901EA56FF4F8491F901F9
S1132370E655FF4FD491F901E254FF4FC491CC23A9
S1132380C9F0162F81110E944911EC2FF0E0EE0FD5
S1132390FF1FEE52FF4FA591B4918FB7F89411111E
S11323A005C09C91ED2FE095E92302C0EC91ED2B43
S11323B0EC938FBFDF91CF911F910895FC01808131
S11323C091810C94C419CF93DF93EC018881998196
S11323D0009711F00E94C419198218821D821C8270
S11323E01B821A82DF91CF9108950F931F93CF938D
S11323F0DF93EC018B016F5F7F4F888199810E948D
S11324005C1A009731F0998388831B830A8381E0E7
S113241001C080E0DF91CF911F910F910895CF9378
S1132420DF93EC0188819981892B29F08A819B8132
S11324308617970760F4CE010E94F511882341F0B6
S11324408C819D81892B19F4E881F981108281E0C6
S1132450DF91CF910895EF92FF920F931F93CF9343
S1132460DF93EC017B018A01BA010E940F128111F2
S113247004C0CE010E94E31107C01D830C83B70181
S1132480888199810E942F1BCE01DF91CF911F91EA
S11324900F91FF90EF900895FC0111821082138236
S11324A01282158214826115710551F0FB010190AD
S11324B00020E9F73197AF01461B570B0C942B1200
S11324C00895CF93DF93EC016115710559F0FB0179
S11324D001900020E9F73197AF01461B570B0E948A
S11324E02B1202C00E94E311CE01DF91CF91089517
S11324F008950F931F93CF93DF938C01EB0188E230
S1132500FB0111928A95E9F74BE050E067E072E035
S1132510CE010E94361B1B8681E090E0A0E0B0E073
S11325208C879D87AE87BF87F80184899589A689A2
S1132530B789888B998BAA8BBB8B82E090E0A0E053
S1132540B0E08C8B9D8BAE8BBF8B1CA21DA21EA2F8
S11325501FA280E090E0A8E4B4E4888F998FAA8F4A
S1132560BB8F80E090E0A8E4B4EC8C8F9D8FAE8F9D
S1132570BF8F8DEC9CECACE4BEE388A399A3AAA323
S1132580BBA3DF91CF911F910F9108950C94C616B0
S113259023E132E0FC0131832083448B558B668B2D
S11325A0778B08956F927F928F929F92AF92BF9292
S11325B0CF92DF92EF92FF920F931F93CF93DF930B
S11325C08C016EE183E893E00E94351663E083E8B2
S11325D093E00E94EC1583E893E00E94BE1646E067
S11325E06EE183E893E00E94B81683E893E00E94CA
S11325F090150697D4F383E893E00E949815682E0B
S113260083E893E00E949815782E83E893E00E9473
S11326109815A82E83E893E00E949815B82E83E8B5
S113262093E00E949815882E83E893E00E94981501
S1132630982ED62CC12CB6016729072E000C880BC6
S1132640990B0E94980AF8016483758386839783A3
S1132650F82CE12CB7016929072E000C880B990B83
S11326600E94980AF8016087718782879387DA2D20
S1132670F0E0CF2FBE016B29072E000C880B990BBD
S11326800E94980AF8016487758786879787108A5D
S1132690118A128A138ADF91CF911F910F91FF90B3
S11326A0EF90DF90CF90BF90AF909F908F907F90EE
S11326B06F900895CF92DF92EF92FF920F931F9342
S11326C0CF93DF938C01EB0184E2FB0111928A9595
S11326D0E9F7C8010E94D21284E290E0A0E0B0E0E1
S11326E088839983AA83BB83F80184899589A68901
S11326F0B7898C839D83AE83BF8382E090E0A0E0A2
S1132700B0E088879987AA87BB87188A198A1A8AAA
S11327101B8AC0902C01D0902D01E0902E01F090E6
S11327202F01A701960164817581868197810E949A
S1132730EE0920E030E048EC52E40E947C0B6C8B04
S11327407D8B8E8B9F8BA7019601F8016085718527
S1132750828593850E94EE0920E030E048EC52E443
S11327600E947C0B688F798F8A8F9B8F2091280120
S11327703091290140912A0150912B01F80164857F
S11327807585868597850E94EE0920E030E048EC47
S113279052E40E947C0B6C8F7D8F8E8F9F8F81E023
S11327A0DF91CF911F910F91FF90EF90DF90CF9029
S11327B00895FC018FE692E1A3E8BAE38083918354
S11327C0A283B38386EA9BE9A4E4BBE38483958371
S11327D0A683B7838FE892ECA5EFBCE3808791874B
S11327E0A287B3871486158616861786108A118ADF
S11327F0128A138A108E118E128E138E148E158ED9
S1132800168E178E10A211A212A213A214A215A240
S113281016A217A208952F923F924F925F926F9241
S11328207F928F929F92AF92BF92CF92DF92EF925C
S1132830FF920F931F93CF93DF93CDB7DEB76C97BF
S11328400FB6F894DEBF0FBECDBF1C014D8B5E8B5F
S11328506F8B788FC901B801D10150962D913D91AC
S11328604D915C915397298B3A8B4B8B5C8B0E94D7
S11328700A099B01AC01F101648B758B868B978BE4
S1132880C701B6010E947C0BD1011C962D913D918C
S11328904D915C911F970E940B096D877E878F87EE
S11328A0988BD10194962D913D914D915C91979780
S11328B02D833E834F835887C701B6010E947C0B4A
S11328C04B015C01F101448C558C668C778C20A102
S11328D031A142A153A129873A874B875C87A30181
S11328E092010E940A0929853A854B855C850E94DC
S11328F00A09F10120813181428153810E940B092F
S11329009B01AC01C701B6010E947C0BD101589612
S11329102D913D914D915C915B970E940B096983C8
S11329207A838B839C83A5019401C301B2010E9425
S11329300A092B013C01A501940169857A858B85DF
S11329409C850E940A0969877A878B879C87F10195
S11329502481358146815781C701B6010E947C0BD1
S11329609B01AC016D817E818F8198850E940B094A
S1132970698F7A8F8B8F9C8FD10118962D913D9101
S11329804D915C911B9769817A818B819C810E9416
S11329900B096B017C019B01AC0169817A818B81FC
S11329A09C810E94EE094B015C01A7019601698597
S11329B07A858B859C850E94EE096B017C012D85AF
S11329C03E854F8558896D897E898F89988D0E94AF
S11329D00A096D837E838F8398879B01AC01C501AF
S11329E0B4010E947C0B9B01AC016D857E858F85B3
S11329F098890E940B096D877E878F87988BF101D8
S1132A0064877587868797872D813E814F81588596
S1132A10C701B6010E947C0B9B01AC0169897A89CC
S1132A208B899C890E940B09D10150966D937D93EB
S1132A308D939C93539729813A814B815C81C50185
S1132A40B4010E947C0B9B01AC0169817A818B816A
S1132A509C810E940A09F101608F718F828F938F8C
S1132A60A3019201C501B4010E947C0B9B01AC013E
S1132A70C301B2010E940A09D1015C966D937D9352
S1132A808D939C935F9729813A814B815C81C70127
S1132A90B6010E947C0B9B01AC0169857A858B850C
S1132AA09C850E940A09F10160A371A382A393A3E8
S1132AB0A3019201C701B6010E947C0B9B01AC01EA
S1132AC0698D7A8D8B8D9C8D0E940A09D101949613
S1132AD06D937D938D939C9397976D857E858F855C
S1132AE098896C960FB6F894DEBF0FBECDBFDF9108
S1132AF0CF911F910F91FF90EF90DF90CF90BF90F7
S1132B00AF909F908F907F906F905F904F903F9089
S1132B102F900895FC014487558766877787089529
S1132B208091B30390E02091B403821B910908952E
S1132B309091B4038091B303981750F4E92FF0E017
S1132B40EB54FC4F208130E09F5F9093B40302C0AC
S1132B502FEF3FEFC9010895E091B4038091B303CF
S1132B60E81730F4F0E0EB54FC4F808190E00895D6
S1132B708FEF9FEF08950895CF92DF92EF92FF9227
S1132B800F931F93CF93DF937C01262F972F8A01F6
S1132B9080918F03882391F0C62FD72F6E01C40E26
S1132BA0D51ECC15DD0571F06991D701ED91FC912D
S1132BB00190F081E02DC7010995F3CF642F822F96
S1132BC00E948417C801DF91CF911F910F91FF904C
S1132BD0EF90DF90CF900895CF93DF931F92CDB7FE
S1132BE0DEB7698320918F032223D1F020919003D3
S1132BF0203240F021E030E0FC013383228380E086
S1132C0090E015C080919103E82FF0E0EE56FC4F60
S1132C10998190838F5F809391038093900305C083
S1132C2061E0CE0101960E94841781E090E00F904C
S1132C30DF91CF910895FC011382128288EE93E014
S1132C40A0E0B0E084839583A683B78381E292E019
S1132C509183808308951092B4031092B303109269
S1132C609103109290030C94C81681E080938F0313
S1132C706093B203109291031092900308950C9400
S1132C8035160F93062F21E04091900362E973E01B
S1132C908091B2030E942E17109291031092900318
S1132CA010928F030F9108954F925F926F927F92CB
S1132CB0AF92BF92CF92EF92FF920F931F93CF9355
S1132CC0DF935C01F62ED42F28013901EE2021F187
S1132CD00E943516CE2DC43008F0C3E0C150C0F0B8
S1132CE0D501ED91FC91B8E0CB9FC0011124A30163
S1132CF0920104C056954795379527958A95D2F742
S1132D00CA01B9010190F081E02DC5010995E6CF12
S1132D1060E0C5010E9441164D2FD13208F040E217
S1132D202C2D65EB73E08F2D0E94E6161092B403F0
S1132D308093B303DF91CF911F910F91FF90EF9098
S1132D40CF90BF90AF907F906F905F904F90089519
S1132D50CF92EF920F931F93C22EE12C00E010E06C
S1132D6098010E9454161F910F91EF90CF900895EF
S1132D7021E00C94A81621E00C94A81661E00C94B0
S1132D80411683E893E00C941B1608950C94C4191F
S1132D901092420481E08093400410923F0461E069
S1132DA082E10E94AE1161E083E10E94AE11E9EB81
S1132DB0F0E080818E7F808380818D7F808388E4B2
S1132DC08093B80085E48093BC000895413208F0F4
S1132DD043C0909142049111FCCF91E0909342043E
S1132DE0209340042FEF2093D50310921A04240F4C
S1132DF0209319049093410490914104880F892BE6
S1132E008093410480913F04813061F410923F0427
S1132E10809141048093BB008091BC0083FDF8CF76
S1132E2085EC01C085EE8093BC0080914204813022
S1132E30E1F380911A04841710F440911A042BE1F1
S1132E4034E0FB01D9018A2F821B841718F48D9179
S1132E508193F9CF842F089580E008950F93413230
S1132E6008F04AC0909142049111FCCF32E03093B3
S1132E704204009340043FEF3093D50310921A04A8
S1132E8040931904FB016BE174E0DB013A2F361B1C
S1132E90341718F431913D93F9CF109241043091D5
S1132EA04104880F832B8093410480913F04813037
S1132EB061F410923F04809141048093BB0080919F
S1132EC0BC0083FDF8CF85EC01C085EE8093BC0087
S1132ED0222321F0809142048230D1F38091D503E2
S1132EE08F3F79F08091D503803241F08091D503F2
S1132EF0803331F094E005C091E003C092E001C05A
S1132F0093E0892F0F910895613298F4209142043F
S1132F10243089F46093F703FC0129EF33E0D901ED
S1132F208A2F821B861718F481918D93F9CF80E044
S1132F30089581E0089582E0089585ED8093BC00B2
S1132F408091BC0084FDFCCF10924204089585EC6E
S1132F508093BC001092420408951F920F920FB602
S1132F600F9211242F933F934F935F936F937F930B
S1132F708F939F93AF93BF93EF93FF938091B90087
S1132F80887F803609F49EC078F5883209F45DC0E4
S1132F9090F4803109F456C038F4882309F4F5C05C
S1132FA0883009F44FC0F5C0883109F44EC080322E
S1132FB009F45FC0EEC0803409F46AC058F4803369
S1132FC009F457C0883309F0E4C08093D5030E9404
S1132FD0A717DFC0803509F44FC0883509F45DC0F8
S1132FE0883409F0D6C0D3C0883909F4C4C0A8F421
S1132FF0883709F467C038F4883609F463C0803729
S113300009F460C0C6C0883809F4B5C0803909F431
S11330105FC0803809F0BDC05BC0803B09F483C049
S113302038F4803A09F466C0883A09F47CC0B1C027
S1133030803C09F4A4C0883C09F4A1C0883B09F48D
S113304087C0A7C08091410410C090911A04809158
S11330501904981770F5E0911A0481E08E0F80939B
S11330601A04F0E0E55EFB4F80818093BB0085ECA1
S113307083C08093D5038BC0E0911A0481E08E0F46
S113308080931A048091BB00F0E0E55EFB4F8083DF
S113309090911A04809119046BC0E0911A0481E0A4
S11330A08E0F80931A048091BB00F0E0E55EFB4F25
S11330B080838091400481116AC081E080933F0441
S11330C084EA5EC083E0809342041092D603CFCF9B
S11330D08091D603803208F04EC0E091D60381E09F
S11330E08E0F8093D6038091BB00F0E0E952FC4F31
S11330F08083BDCF0E94A7178091D603803230F41D
S1133100E091D603F0E0E952FC4F10826091D603BF
S113311070E0E0913B04F0913C0487ED93E0099565
S11331201092D60336C084E0809342041092F803D0
S11331301092F703E0913D04F0913E0409958091CB
S1133140F703811105C081E08093F7031092F9031E
S1133150E091F80381E08E0F8093F803F0E0E750EC
S1133160FC4F80818093BB009091F8038091F7031A
S1133170981708F47CCF85E88093BC000AC085ECDE
S11331808093BC001092420404C01092D5030E94A4
S11331909D17FF91EF91BF91AF919F918F917F9177
S11331A06F915F914F913F912F910F900FBE0F90B0
S11331B01F9018950E94D30A880B990B089597FBCA
S11331C0072E16F4009407D077FD09D00E94151934
S11331D007FC05D03EF4909581959F4F0895709516
S11331E061957F4F0895A1E21A2EAA1BBB1BFD0116
S11331F00DC0AA1FBB1FEE1FFF1FA217B307E407D2
S1133200F50720F0A21BB30BE40BF50B661F771F29
S1133210881F991F1A9469F7609570958095909509
S11332209B01AC01BD01CF010895AA1BBB1B51E159
S113323007C0AA1FBB1FA617B70710F0A61BB70B22
S1133240881F991F5A95A9F780959095BC01CD01C7
S11332500895EE0FFF1F0590F491E02D0994CF938C
S1133260DF938230910510F482E090E0E091450410
S1133270F091460420E030E0C0E0D0E0309711F156
S11332804081518148175907C0F04817590761F424
S113329082819381209719F09B838A832BC090931A
S11332A046048093450426C02115310519F04217C0
S11332B0530718F49A01BE01DF01EF010280F38184
S11332C0E02DDCCF2115310509F1281B390B243001
S11332D0310590F412968D919C91139761157105A7
S11332E021F0FB019383828304C09093460480936E
S11332F04504FD01329644C0FD01E20FF31F8193A2
S11333009193225031092D933C933AC02091430468
S113331030914404232B41F42091020130910301A4
S1133320309344042093430420910001309101011F
S11333302115310541F42DB73EB740910401509158
S11333400501241B350BE0914304F0914404E2177A
S1133350F307A0F42E1B3F0B2817390778F0AC01B4
S11333604E5F5F4F2417350748F04E0F5F1F509391
S11333704404409343048193919302C0E0E0F0E05D
S1133380CF01DF91CF9108950F931F93CF93DF93D4
S1133390009709F48CC0FC013297138212820091C9
S11333A04504109146040115110581F420813181F1
S11333B0820F931F20914304309144042817390746
S11333C079F5F0934404E093430471C0D80140E0DC
S11333D050E0AE17BF0750F412962D913C9113970D
S11333E0AD012115310509F1D901F3CF9D01DA01B0
S11333F03383228360817181860F971F821793071D
S113340069F4EC0128813981260F371F2E5F3F4F65
S1133410318320838A819B8193838283452B29F482
S1133420F0934604E093450442C01396FC93EE9354
S11334301297ED01499159919E01240F351FE2170E
S1133440F30771F480819181840F951F0296119680
S11334509C938E938281938113969C938E9312975F
S1133460E0E0F0E0D80112968D919C9113970097BB
S113347019F0F8018C01F6CF8D919C9198012E5F83
S11334803F4F820F931F2091430430914404281727
S1133490390769F4309729F41092460410924504D0
S11334A002C0138212821093440400934304DF91F8
S11334B0CF911F910F910895A0E0B0E0E2E6FAE108
S11334C00C94491BEC01009721F4CB010E942F19A5
S11334D0B8C0FC01E60FF71F9C0122503109E21726
S11334E0F30708F4ACC0D9010D911C91119706178C
S11334F01707B0F00530110508F49FC0C801049700
S11335008617970708F499C002501109061B170B78
S1133510019311936D937C93CF010E94C4198DC0C4
S11335205B01A01AB10A4C01800E911EA0914504C2
S1133530B091460440E050E0E12CF12C109709F4DE
S11335404AC0A815B905D1F56D907C901197630117
S113355082E0C80ED11CCA14DB0480F1A3014A190D
S11335605B096A0182E0C80ED11C1296BC901297C6
S11335701396AC91B5E0CB16D10440F0B282A3838C
S113358051834083D9016D937C930AC00E5F1F4F12
S1133590C301800F911FF90191838083EB2DFA2FD2
S11335A0E114F10431F0D7011396FC93EE931297D2
S11335B044C0F0934604E09345043FC08D919C9130
S11335C011974817590708F4AC017D0112960D9024
S11335D0BC91A02DB3CF80914304909144048815ED
S11335E09905E1F446175707C8F4809100019091BA
S11335F00101009741F48DB79EB7409104015091A9
S11336000501841B950BE817F907C8F4F0934404EB
S1133610E0934304F901718360830FC0CB010E94DE
S11336202F197C01009759F0A801BE010E94261BA6
S1133630CE010E94C419C70104C0CE0102C080E0BB
S113364090E0CDB7DEB7EEE00C94651BFB01DC0126
S113365002C001900D9241505040D8F70895FB01EB
S1133660DC0101900D920020E1F70895FB01DC01DB
S11336704150504048F001900D920020C9F701C01C
S11336801D9241505040E0F708952F923F924F927F
S11336905F926F927F928F929F92AF92BF92CF92DE
S11336A0DF92EF92FF920F931F93CF93DF93CDB7E7
S11336B0DEB7CA1BDB0B0FB6F894DEBF0FBECDBF5F
S11336C009942A88398848885F846E847D848C8430
S11336D09B84AA84B984C884DF80EE80FD800C8139
S11336E01B81AA81B981CE0FD11D0FB6F894DEBF1C
S11336F00FBECDBFED01089510E0C6E7D0E004C0D1
S1133700FE010E9429192196C737D107C9F7F894F9
S1053710FFCFE5
S11337120000470420000B0006000500030002001D
S113372204000A000F000E00090010000C00FF0044
S113373264005D0014007800000075440080894430
S11337422D2D2D2D2D2D2D2D2D2D2D2D2D2D2D2DA3
S11337522D2D2D2D2D2D2D2D2D2D2D2D2D2D2D2D93
S11337622D2D2D2D0053656E736F723A202020206B
S113377220202000447269766572205665723A20D0
S1133782202000556E697175652049443A20202035
S113379220004D61782056616C75653A2020202006
S11337A200207554004D696E2056616C75653A208F
S11337B2202020005265736F6C7574696F6E3A2015
S11337C22020000A0D0049207265636569766564EC
S11337D23A202020202020202020202020202020C9
S11337E220202020202020202020202020202020D3
S11337F220202020200000000000C70C120E480CDC
S1133802620C540CA50C0D0A006E616E00696E66A2
S1133812006F7666002E00484D4335383833000079
S11338220000007812C612A1005A13791200000097
S111383200EC15BC1590159815AC15BB1500CF
S9030000FC
